{
  "_format": "hh-sol-artifact-1",
  "contractName": "ConstructorParams",
  "sourceName": "contracts/ConstructorParams.sol",
  "abi": [
    {
      "inputs": [
        {
          "internalType": "address",
          "name": "someAddress",
          "type": "address"
        },
        {
          "internalType": "bytes32",
          "name": "uri",
          "type": "bytes32"
        },
        {
          "internalType": "uint256",
          "name": "someId",
          "type": "uint256"
        },
        {
          "internalType": "address[]",
          "name": "someAddresses",
          "type": "address[]"
        },
        {
          "internalType": "uint256[]",
          "name": "someIds",
          "type": "uint256[]"
        }
      ],
      "stateMutability": "nonpayable",
      "type": "constructor"
    },
    {
      "inputs": [],
      "name": "contractUri",
      "outputs": [
        {
          "internalType": "bytes32",
          "name": "",
          "type": "bytes32"
        }
      ],
      "stateMutability": "view",
      "type": "function"
    },
    {
      "inputs": [],
      "name": "getPublishMetadataUri",
      "outputs": [
        {
          "internalType": "string",
          "name": "",
          "type": "string"
        }
      ],
      "stateMutability": "view",
      "type": "function"
    },
    {
      "inputs": [
        {
          "internalType": "string",
          "name": "uri",
          "type": "string"
        }
      ],
      "name": "setPublisheMetadataUi",
      "outputs": [],
      "stateMutability": "nonpayable",
      "type": "function"
    }
  ],
  "bytecode": "0x60a06040523480156200001157600080fd5b5060405162000cc638038062000cc683398181016040528101906200003791906200047c565b33600160006101000a81548173ffffffffffffffffffffffffffffffffffffffff021916908373ffffffffffffffffffffffffffffffffffffffff1602179055503373ffffffffffffffffffffffffffffffffffffffff1663d5f394886040518163ffffffff1660e01b815260040160206040518083038186803b158015620000bf57600080fd5b505afa158015620000d4573d6000803e3d6000fd5b505050506040513d601f19601f82011682018060405250810190620000fa919062000450565b600260006101000a81548173ffffffffffffffffffffffffffffffffffffffff021916908373ffffffffffffffffffffffffffffffffffffffff16021790555083608081815250508260038190555084600460006101000a81548173ffffffffffffffffffffffffffffffffffffffff021916908373ffffffffffffffffffffffffffffffffffffffff1602179055508160059080519060200190620001a2929190620001c7565b508060069080519060200190620001bb92919062000256565b505050505050620006c3565b82805482825590600052602060002090810192821562000243579160200282015b82811115620002425782518260006101000a81548173ffffffffffffffffffffffffffffffffffffffff021916908373ffffffffffffffffffffffffffffffffffffffff16021790555091602001919060010190620001e8565b5b509050620002529190620002a8565b5090565b82805482825590600052602060002090810192821562000295579160200282015b828111156200029457825182559160200191906001019062000277565b5b509050620002a49190620002a8565b5090565b5b80821115620002c3576000816000905550600101620002a9565b5090565b6000620002de620002d88462000559565b62000530565b90508083825260208201905082856020860282011115620002fe57600080fd5b60005b85811015620003325781620003178882620003b1565b84526020840193506020830192505060018101905062000301565b5050509392505050565b6000620003536200034d8462000588565b62000530565b905080838252602082019050828560208602820111156200037357600080fd5b60005b85811015620003a757816200038c888262000439565b84526020840193506020830192505060018101905062000376565b5050509392505050565b600081519050620003c28162000675565b92915050565b600082601f830112620003da57600080fd5b8151620003ec848260208601620002c7565b91505092915050565b600082601f8301126200040757600080fd5b8151620004198482602086016200033c565b91505092915050565b60008151905062000433816200068f565b92915050565b6000815190506200044a81620006a9565b92915050565b6000602082840312156200046357600080fd5b60006200047384828501620003b1565b91505092915050565b600080600080600060a086880312156200049557600080fd5b6000620004a588828901620003b1565b9550506020620004b88882890162000422565b9450506040620004cb8882890162000439565b935050606086015167ffffffffffffffff811115620004e957600080fd5b620004f788828901620003c8565b925050608086015167ffffffffffffffff8111156200051557600080fd5b6200052388828901620003f5565b9150509295509295909350565b60006200053c6200054f565b90506200054a8282620005ff565b919050565b6000604051905090565b600067ffffffffffffffff82111562000577576200057662000635565b5b602082029050602081019050919050565b600067ffffffffffffffff821115620005a657620005a562000635565b5b602082029050602081019050919050565b6000620005c482620005d5565b9050919050565b6000819050919050565b600073ffffffffffffffffffffffffffffffffffffffff82169050919050565b6000819050919050565b6200060a8262000664565b810181811067ffffffffffffffff821117156200062c576200062b62000635565b5b80604052505050565b7f4e487b7100000000000000000000000000000000000000000000000000000000600052604160045260246000fd5b6000601f19601f8301169050919050565b6200068081620005b7565b81146200068c57600080fd5b50565b6200069a81620005cb565b8114620006a657600080fd5b50565b620006b481620005f5565b8114620006c057600080fd5b50565b6080516105e7620006df600039600061010a01526105e76000f3fe608060405234801561001057600080fd5b50600436106100415760003560e01c806382be0eed14610046578063c0e24d5e14610062578063d3684f4014610080575b600080fd5b610060600480360381019061005b91906102c9565b61009e565b005b61006a610108565b6040516100779190610375565b60405180910390f35b61008861012c565b6040516100959190610390565b60405180910390f35b60008080546100ac90610490565b9050146100ee576040517f08c379a00000000000000000000000000000000000000000000000000000000081526004016100e5906103b2565b60405180910390fd5b80600090805190602001906101049291906101be565b5050565b7f000000000000000000000000000000000000000000000000000000000000000081565b60606000805461013b90610490565b80601f016020809104026020016040519081016040528092919081815260200182805461016790610490565b80156101b45780601f10610189576101008083540402835291602001916101b4565b820191906000526020600020905b81548152906001019060200180831161019757829003601f168201915b5050505050905090565b8280546101ca90610490565b90600052602060002090601f0160209004810192826101ec5760008555610233565b82601f1061020557805160ff1916838001178555610233565b82800160010185558215610233579182015b82811115610232578251825591602001919060010190610217565b5b5090506102409190610244565b5090565b5b8082111561025d576000816000905550600101610245565b5090565b600061027461026f846103f7565b6103d2565b90508281526020810184848401111561028c57600080fd5b61029784828561044e565b509392505050565b600082601f8301126102b057600080fd5b81356102c0848260208601610261565b91505092915050565b6000602082840312156102db57600080fd5b600082013567ffffffffffffffff8111156102f557600080fd5b6103018482850161029f565b91505092915050565b61031381610444565b82525050565b600061032482610428565b61032e8185610433565b935061033e81856020860161045d565b61034781610551565b840191505092915050565b600061035f602683610433565b915061036a82610562565b604082019050919050565b600060208201905061038a600083018461030a565b92915050565b600060208201905081810360008301526103aa8184610319565b905092915050565b600060208201905081810360008301526103cb81610352565b9050919050565b60006103dc6103ed565b90506103e882826104c2565b919050565b6000604051905090565b600067ffffffffffffffff82111561041257610411610522565b5b61041b82610551565b9050602081019050919050565b600081519050919050565b600082825260208201905092915050565b6000819050919050565b82818337600083830152505050565b60005b8381101561047b578082015181840152602081019050610460565b8381111561048a576000848401525b50505050565b600060028204905060018216806104a857607f821691505b602082108114156104bc576104bb6104f3565b5b50919050565b6104cb82610551565b810181811067ffffffffffffffff821117156104ea576104e9610522565b5b80604052505050565b7f4e487b7100000000000000000000000000000000000000000000000000000000600052602260045260246000fd5b7f4e487b7100000000000000000000000000000000000000000000000000000000600052604160045260246000fd5b6000601f19601f8301169050919050565b7f5075626c6973686564206d6574616461746120616c726561647920696e69746960008201527f616c697a6564000000000000000000000000000000000000000000000000000060208201525056fea2646970667358221220123a0fe6e1c468caa4d093c61716c90cdbf70b370b32e67b12c91dba75a918ad64736f6c63430008040033",
  "linkReferences": {},
  "deployedLinkReferences": {}
}