{
  "_format": "hh-sol-artifact-1",
  "contractName": "ConstructorParams",
  "sourceName": "contracts/ConstructorParams.sol",
  "abi": [
    {
      "inputs": [
        {
          "internalType": "address",
          "name": "someAddress",
          "type": "address"
        },
        {
          "internalType": "bytes32",
          "name": "uri",
          "type": "bytes32"
        },
        {
          "internalType": "uint256",
          "name": "someId",
          "type": "uint256"
        },
        {
          "internalType": "address[]",
          "name": "someAddresses",
          "type": "address[]"
        },
        {
          "internalType": "uint256[]",
          "name": "someIds",
          "type": "uint256[]"
        }
      ],
      "stateMutability": "nonpayable",
      "type": "constructor"
    },
    {
      "inputs": [],
      "name": "ThirdwebContract_MetadataAlreadyInitialized",
      "type": "error"
    },
    {
      "inputs": [],
      "name": "contractUri",
      "outputs": [
        {
          "internalType": "bytes32",
          "name": "",
          "type": "bytes32"
        }
      ],
      "stateMutability": "view",
      "type": "function"
    },
    {
      "inputs": [],
      "name": "getPublishMetadataUri",
      "outputs": [
        {
          "internalType": "string",
          "name": "",
          "type": "string"
        }
      ],
      "stateMutability": "view",
      "type": "function"
    },
    {
      "inputs": [
        {
          "internalType": "string",
          "name": "uri",
          "type": "string"
        }
      ],
      "name": "setPublishMetadataUri",
      "outputs": [],
      "stateMutability": "nonpayable",
      "type": "function"
    }
  ],
  "bytecode": "0x60a06040523480156200001157600080fd5b5060405162000afc38038062000afc83398181016040528101906200003791906200034d565b83608081815250508260018190555084600260006101000a81548173ffffffffffffffffffffffffffffffffffffffff021916908373ffffffffffffffffffffffffffffffffffffffff16021790555081600390805190602001906200009f929190620000c4565b508060049080519060200190620000b892919062000153565b50505050505062000594565b82805482825590600052602060002090810192821562000140579160200282015b828111156200013f5782518260006101000a81548173ffffffffffffffffffffffffffffffffffffffff021916908373ffffffffffffffffffffffffffffffffffffffff16021790555091602001919060010190620000e5565b5b5090506200014f9190620001a5565b5090565b82805482825590600052602060002090810192821562000192579160200282015b828111156200019157825182559160200191906001019062000174565b5b509050620001a19190620001a5565b5090565b5b80821115620001c0576000816000905550600101620001a6565b5090565b6000620001db620001d5846200042a565b62000401565b90508083825260208201905082856020860282011115620001fb57600080fd5b60005b858110156200022f5781620002148882620002ae565b845260208401935060208301925050600181019050620001fe565b5050509392505050565b6000620002506200024a8462000459565b62000401565b905080838252602082019050828560208602820111156200027057600080fd5b60005b85811015620002a4578162000289888262000336565b84526020840193506020830192505060018101905062000273565b5050509392505050565b600081519050620002bf8162000546565b92915050565b600082601f830112620002d757600080fd5b8151620002e9848260208601620001c4565b91505092915050565b600082601f8301126200030457600080fd5b81516200031684826020860162000239565b91505092915050565b600081519050620003308162000560565b92915050565b60008151905062000347816200057a565b92915050565b600080600080600060a086880312156200036657600080fd5b60006200037688828901620002ae565b955050602062000389888289016200031f565b94505060406200039c8882890162000336565b935050606086015167ffffffffffffffff811115620003ba57600080fd5b620003c888828901620002c5565b925050608086015167ffffffffffffffff811115620003e657600080fd5b620003f488828901620002f2565b9150509295509295909350565b60006200040d62000420565b90506200041b8282620004d0565b919050565b6000604051905090565b600067ffffffffffffffff82111562000448576200044762000506565b5b602082029050602081019050919050565b600067ffffffffffffffff82111562000477576200047662000506565b5b602082029050602081019050919050565b60006200049582620004a6565b9050919050565b6000819050919050565b600073ffffffffffffffffffffffffffffffffffffffff82169050919050565b6000819050919050565b620004db8262000535565b810181811067ffffffffffffffff82111715620004fd57620004fc62000506565b5b80604052505050565b7f4e487b7100000000000000000000000000000000000000000000000000000000600052604160045260246000fd5b6000601f19601f8301169050919050565b620005518162000488565b81146200055d57600080fd5b50565b6200056b816200049c565b81146200057757600080fd5b50565b6200058581620004c6565b81146200059157600080fd5b50565b60805161054c620005b06000396000610101015261054c6000f3fe608060405234801561001057600080fd5b50600436106100415760003560e01c806374ea128814610046578063c0e24d5e14610062578063d3684f4014610080575b600080fd5b610060600480360381019061005b91906102c0565b61009e565b005b61006a6100ff565b6040516100779190610349565b60405180910390f35b610088610123565b6040516100959190610364565b60405180910390f35b60008080546100ac90610444565b9050146100e5576040517f1a01834100000000000000000000000000000000000000000000000000000000815260040160405180910390fd5b80600090805190602001906100fb9291906101b5565b5050565b7f000000000000000000000000000000000000000000000000000000000000000081565b60606000805461013290610444565b80601f016020809104026020016040519081016040528092919081815260200182805461015e90610444565b80156101ab5780601f10610180576101008083540402835291602001916101ab565b820191906000526020600020905b81548152906001019060200180831161018e57829003601f168201915b5050505050905090565b8280546101c190610444565b90600052602060002090601f0160209004810192826101e3576000855561022a565b82601f106101fc57805160ff191683800117855561022a565b8280016001018555821561022a579182015b8281111561022957825182559160200191906001019061020e565b5b509050610237919061023b565b5090565b5b8082111561025457600081600090555060010161023c565b5090565b600061026b610266846103ab565b610386565b90508281526020810184848401111561028357600080fd5b61028e848285610402565b509392505050565b600082601f8301126102a757600080fd5b81356102b7848260208601610258565b91505092915050565b6000602082840312156102d257600080fd5b600082013567ffffffffffffffff8111156102ec57600080fd5b6102f884828501610296565b91505092915050565b61030a816103f8565b82525050565b600061031b826103dc565b61032581856103e7565b9350610335818560208601610411565b61033e81610505565b840191505092915050565b600060208201905061035e6000830184610301565b92915050565b6000602082019050818103600083015261037e8184610310565b905092915050565b60006103906103a1565b905061039c8282610476565b919050565b6000604051905090565b600067ffffffffffffffff8211156103c6576103c56104d6565b5b6103cf82610505565b9050602081019050919050565b600081519050919050565b600082825260208201905092915050565b6000819050919050565b82818337600083830152505050565b60005b8381101561042f578082015181840152602081019050610414565b8381111561043e576000848401525b50505050565b6000600282049050600182168061045c57607f821691505b602082108114156104705761046f6104a7565b5b50919050565b61047f82610505565b810181811067ffffffffffffffff8211171561049e5761049d6104d6565b5b80604052505050565b7f4e487b7100000000000000000000000000000000000000000000000000000000600052602260045260246000fd5b7f4e487b7100000000000000000000000000000000000000000000000000000000600052604160045260246000fd5b6000601f19601f830116905091905056fea264697066735822122099361847286638c80b76abaffbb54578c52450daba5a521fef95f6456a28a93a64736f6c63430008040033",
  "linkReferences": {},
  "deployedLinkReferences": {}
}