{
  "_format": "hh-sol-artifact-1",
  "contractName": "ConstructorParams",
  "sourceName": "contracts/ConstructorParams.sol",
  "abi": [
    {
      "inputs": [
        {
          "internalType": "bytes32",
          "name": "uri",
          "type": "bytes32"
        },
        {
          "internalType": "uint256",
          "name": "someId",
          "type": "uint256"
        }
      ],
      "stateMutability": "nonpayable",
      "type": "constructor"
    },
    {
      "inputs": [],
      "name": "contractUri",
      "outputs": [
        {
          "internalType": "bytes32",
          "name": "",
          "type": "bytes32"
        }
      ],
      "stateMutability": "view",
      "type": "function"
    }
  ],
  "bytecode": "0x60a060405234801561001057600080fd5b506040516101d93803806101d983398181016040528101906100329190610072565b81608081815250508060008190555050506100f0565b600081519050610057816100c2565b92915050565b60008151905061006c816100d9565b92915050565b6000806040838503121561008557600080fd5b600061009385828601610048565b92505060206100a48582860161005d565b9150509250929050565b6000819050919050565b6000819050919050565b6100cb816100ae565b81146100d657600080fd5b50565b6100e2816100b8565b81146100ed57600080fd5b50565b60805160d161010860003960006049015260d16000f3fe6080604052348015600f57600080fd5b506004361060285760003560e01c8063c0e24d5e14602d575b600080fd5b60336047565b604051603e91906078565b60405180910390f35b7f000000000000000000000000000000000000000000000000000000000000000081565b6072816091565b82525050565b6000602082019050608b6000830184606b565b92915050565b600081905091905056fea264697066735822122029b076655d881d18d402addc21bd57c9f8d9e1dc89c6312f4a6deeb1f1ff0f3d64736f6c63430008040033",
  "linkReferences": {},
  "deployedLinkReferences": {}
}