{
  "_format": "hh-sol-artifact-1",
  "contractName": "ConstructorParams",
  "sourceName": "contracts/ConstructorParams.sol",
  "abi": [
    {
      "inputs": [
        {
          "internalType": "bytes32",
          "name": "uri",
          "type": "bytes32"
        },
        {
          "internalType": "uint256",
          "name": "someId",
          "type": "uint256"
        }
      ],
      "stateMutability": "nonpayable",
      "type": "constructor"
    },
    {
      "inputs": [],
      "name": "contractURI",
      "outputs": [
        {
          "internalType": "string",
          "name": "",
          "type": "string"
        }
      ],
      "stateMutability": "view",
      "type": "function"
    },
    {
      "inputs": [],
      "name": "contractUri",
      "outputs": [
        {
          "internalType": "bytes32",
          "name": "",
          "type": "bytes32"
        }
      ],
      "stateMutability": "view",
      "type": "function"
    },
    {
      "inputs": [],
      "name": "getPublishMetadataUri",
      "outputs": [
        {
          "internalType": "string",
          "name": "",
          "type": "string"
        }
      ],
      "stateMutability": "view",
      "type": "function"
    },
    {
      "inputs": [
        {
          "components": [
            {
              "internalType": "string",
              "name": "publishMetadataUri",
              "type": "string"
            },
            {
              "internalType": "string",
              "name": "contractURI",
              "type": "string"
            }
          ],
          "internalType": "struct ThirdwebContract.ThirdwebInfo",
          "name": "_thirdwebInfo",
          "type": "tuple"
        }
      ],
      "name": "setThirdwebInfo",
      "outputs": [],
      "stateMutability": "nonpayable",
      "type": "function"
    }
  ],
  "bytecode": "0x60a060405234801561001057600080fd5b5060405161081e38038061081e83398181016040528101906100329190610072565b81608081815250508060028190555050506100f0565b600081519050610057816100c2565b92915050565b60008151905061006c816100d9565b92915050565b6000806040838503121561008557600080fd5b600061009385828601610048565b92505060206100a48582860161005d565b9150509250929050565b6000819050919050565b6000819050919050565b6100cb816100ae565b81146100d657600080fd5b50565b6100e2816100b8565b81146100ed57600080fd5b50565b60805161071361010b600039600061015201526107136000f3fe608060405234801561001057600080fd5b506004361061004c5760003560e01c80637f1a36ed14610051578063c0e24d5e1461006d578063d3684f401461008b578063e8a3d485146100a9575b600080fd5b61006b6004803603810190610066919061041b565b6100c7565b005b610075610150565b60405161008291906104c7565b60405180910390f35b610093610174565b6040516100a091906104e2565b60405180910390f35b6100b1610206565b6040516100be91906104e2565b60405180910390f35b60008080546100d5906105e2565b905014610117576040517f08c379a000000000000000000000000000000000000000000000000000000000815260040161010e90610504565b60405180910390fd5b806000015160009080519060200190610131929190610294565b5080602001516001908051906020019061014c929190610294565b5050565b7f000000000000000000000000000000000000000000000000000000000000000081565b606060008054610183906105e2565b80601f01602080910402602001604051908101604052809291908181526020018280546101af906105e2565b80156101fc5780601f106101d1576101008083540402835291602001916101fc565b820191906000526020600020905b8154815290600101906020018083116101df57829003601f168201915b5050505050905090565b60018054610213906105e2565b80601f016020809104026020016040519081016040528092919081815260200182805461023f906105e2565b801561028c5780601f106102615761010080835404028352916020019161028c565b820191906000526020600020905b81548152906001019060200180831161026f57829003601f168201915b505050505081565b8280546102a0906105e2565b90600052602060002090601f0160209004810192826102c25760008555610309565b82601f106102db57805160ff1916838001178555610309565b82800160010185558215610309579182015b828111156103085782518255916020019190600101906102ed565b5b509050610316919061031a565b5090565b5b8082111561033357600081600090555060010161031b565b5090565b600061034a61034584610549565b610524565b90508281526020810184848401111561036257600080fd5b61036d8482856105a0565b509392505050565b600082601f83011261038657600080fd5b8135610396848260208601610337565b91505092915050565b6000604082840312156103b157600080fd5b6103bb6040610524565b9050600082013567ffffffffffffffff8111156103d757600080fd5b6103e384828501610375565b600083015250602082013567ffffffffffffffff81111561040357600080fd5b61040f84828501610375565b60208301525092915050565b60006020828403121561042d57600080fd5b600082013567ffffffffffffffff81111561044757600080fd5b6104538482850161039f565b91505092915050565b61046581610596565b82525050565b60006104768261057a565b6104808185610585565b93506104908185602086016105af565b610499816106a3565b840191505092915050565b60006104b1601383610585565b91506104bc826106b4565b602082019050919050565b60006020820190506104dc600083018461045c565b92915050565b600060208201905081810360008301526104fc818461046b565b905092915050565b6000602082019050818103600083015261051d816104a4565b9050919050565b600061052e61053f565b905061053a8282610614565b919050565b6000604051905090565b600067ffffffffffffffff82111561056457610563610674565b5b61056d826106a3565b9050602081019050919050565b600081519050919050565b600082825260208201905092915050565b6000819050919050565b82818337600083830152505050565b60005b838110156105cd5780820151818401526020810190506105b2565b838111156105dc576000848401525b50505050565b600060028204905060018216806105fa57607f821691505b6020821081141561060e5761060d610645565b5b50919050565b61061d826106a3565b810181811067ffffffffffffffff8211171561063c5761063b610674565b5b80604052505050565b7f4e487b7100000000000000000000000000000000000000000000000000000000600052602260045260246000fd5b7f4e487b7100000000000000000000000000000000000000000000000000000000600052604160045260246000fd5b6000601f19601f8301169050919050565b7f416c726561647920696e697469616c697a65640000000000000000000000000060008201525056fea26469706673582212207f4486a94384b376f8442ca1da425b5eb065a91b867e03b739ef7912cf6e81f864736f6c63430008040033",
  "linkReferences": {},
  "deployedLinkReferences": {}
}