{
  "_format": "hh-sol-artifact-1",
  "contractName": "ConstructorParams",
  "sourceName": "contracts/ConstructorParams.sol",
  "abi": [
    {
      "inputs": [
        {
          "internalType": "bytes32",
          "name": "uri",
          "type": "bytes32"
        },
        {
          "internalType": "uint256",
          "name": "someId",
          "type": "uint256"
        }
      ],
      "stateMutability": "nonpayable",
      "type": "constructor"
    },
    {
      "anonymous": false,
      "inputs": [
        {
          "indexed": false,
          "internalType": "address",
          "name": "prevOwner",
          "type": "address"
        },
        {
          "indexed": false,
          "internalType": "address",
          "name": "newOwner",
          "type": "address"
        }
      ],
      "name": "OwnerUpdated",
      "type": "event"
    },
    {
      "inputs": [],
      "name": "contractURI",
      "outputs": [
        {
          "internalType": "string",
          "name": "",
          "type": "string"
        }
      ],
      "stateMutability": "view",
      "type": "function"
    },
    {
      "inputs": [],
      "name": "contractUri",
      "outputs": [
        {
          "internalType": "bytes32",
          "name": "",
          "type": "bytes32"
        }
      ],
      "stateMutability": "view",
      "type": "function"
    },
    {
      "inputs": [],
      "name": "getPublishMetadataUri",
      "outputs": [
        {
          "internalType": "string",
          "name": "",
          "type": "string"
        }
      ],
      "stateMutability": "view",
      "type": "function"
    },
    {
      "inputs": [],
      "name": "owner",
      "outputs": [
        {
          "internalType": "address",
          "name": "",
          "type": "address"
        }
      ],
      "stateMutability": "view",
      "type": "function"
    },
    {
      "inputs": [
        {
          "internalType": "string",
          "name": "_uri",
          "type": "string"
        }
      ],
      "name": "setContractURI",
      "outputs": [],
      "stateMutability": "nonpayable",
      "type": "function"
    },
    {
      "inputs": [
        {
          "internalType": "address",
          "name": "_newOwner",
          "type": "address"
        }
      ],
      "name": "setOwner",
      "outputs": [],
      "stateMutability": "nonpayable",
      "type": "function"
    },
    {
      "inputs": [
        {
          "components": [
            {
              "internalType": "string",
              "name": "publishMetadataUri",
              "type": "string"
            },
            {
              "internalType": "string",
              "name": "contractURI",
              "type": "string"
            },
            {
              "internalType": "address",
              "name": "owner",
              "type": "address"
            }
          ],
          "internalType": "struct ThirdwebContract.ThirdwebInfo",
          "name": "_thirdwebInfo",
          "type": "tuple"
        }
      ],
      "name": "setThirdwebInfo",
      "outputs": [],
      "stateMutability": "nonpayable",
      "type": "function"
    }
  ],
  "bytecode": "0x60a060405234801561001057600080fd5b5060405162000d7538038062000d7583398181016040528101906100349190610074565b81608081815250508060038190555050506100f2565b600081519050610059816100c4565b92915050565b60008151905061006e816100db565b92915050565b6000806040838503121561008757600080fd5b60006100958582860161004a565b92505060206100a68582860161005f565b9150509250929050565b6000819050919050565b6000819050919050565b6100cd816100b0565b81146100d857600080fd5b50565b6100e4816100ba565b81146100ef57600080fd5b50565b608051610c676200010e60003960006103890152610c676000f3fe608060405234801561001057600080fd5b506004361061007d5760003560e01c8063bba53cba1161005b578063bba53cba146100d8578063c0e24d5e146100f4578063d3684f4014610112578063e8a3d485146101305761007d565b806313af4035146100825780638da5cb5b1461009e578063938e3d7b146100bc575b600080fd5b61009c600480360381019061009791906107f9565b61014e565b005b6100a6610238565b6040516100b39190610945565b60405180910390f35b6100d660048036038101906100d19190610822565b61025c565b005b6100f260048036038101906100ed9190610867565b6102b9565b005b6100fc610387565b6040516101099190610989565b60405180910390f35b61011a6103ab565b60405161012791906109a4565b60405180910390f35b61013861043d565b60405161014591906109a4565b60405180910390f35b6101566104cb565b610195576040517f08c379a000000000000000000000000000000000000000000000000000000000815260040161018c906109e6565b60405180910390fd5b60008060009054906101000a900473ffffffffffffffffffffffffffffffffffffffff169050816000806101000a81548173ffffffffffffffffffffffffffffffffffffffff021916908373ffffffffffffffffffffffffffffffffffffffff1602179055507f8292fce18fa69edf4db7b94ea2e58241df0ae57f97e0a6c9b29067028bf92d76818360405161022c929190610960565b60405180910390a15050565b60008054906101000a900473ffffffffffffffffffffffffffffffffffffffff1681565b610264610522565b6102a3576040517f08c379a000000000000000000000000000000000000000000000000000000000815260040161029a906109e6565b60405180910390fd5b8181600191906102b4929190610579565b505050565b6000600280546102c890610af6565b90501461030a576040517f08c379a0000000000000000000000000000000000000000000000000000000008152600401610301906109c6565b60405180910390fd5b8060000151600290805190602001906103249291906105ff565b5080602001516001908051906020019061033f9291906105ff565b5080604001516000806101000a81548173ffffffffffffffffffffffffffffffffffffffff021916908373ffffffffffffffffffffffffffffffffffffffff16021790555050565b7f000000000000000000000000000000000000000000000000000000000000000081565b6060600280546103ba90610af6565b80601f01602080910402602001604051908101604052809291908181526020018280546103e690610af6565b80156104335780601f1061040857610100808354040283529160200191610433565b820191906000526020600020905b81548152906001019060200180831161041657829003601f168201915b5050505050905090565b6001805461044a90610af6565b80601f016020809104026020016040519081016040528092919081815260200182805461047690610af6565b80156104c35780601f10610498576101008083540402835291602001916104c3565b820191906000526020600020905b8154815290600101906020018083116104a657829003601f168201915b505050505081565b60008060009054906101000a900473ffffffffffffffffffffffffffffffffffffffff1673ffffffffffffffffffffffffffffffffffffffff163373ffffffffffffffffffffffffffffffffffffffff1614905090565b60008060009054906101000a900473ffffffffffffffffffffffffffffffffffffffff1673ffffffffffffffffffffffffffffffffffffffff163373ffffffffffffffffffffffffffffffffffffffff1614905090565b82805461058590610af6565b90600052602060002090601f0160209004810192826105a757600085556105ee565b82601f106105c057803560ff19168380011785556105ee565b828001600101855582156105ee579182015b828111156105ed5782358255916020019190600101906105d2565b5b5090506105fb9190610685565b5090565b82805461060b90610af6565b90600052602060002090601f01602090048101928261062d5760008555610674565b82601f1061064657805160ff1916838001178555610674565b82800160010185558215610674579182015b82811115610673578251825591602001919060010190610658565b5b5090506106819190610685565b5090565b5b8082111561069e576000816000905550600101610686565b5090565b60006106b56106b084610a2b565b610a06565b9050828152602081018484840111156106cd57600080fd5b6106d8848285610ab4565b509392505050565b6000813590506106ef81610c1a565b92915050565b60008083601f84011261070757600080fd5b8235905067ffffffffffffffff81111561072057600080fd5b60208301915083600182028301111561073857600080fd5b9250929050565b600082601f83011261075057600080fd5b81356107608482602086016106a2565b91505092915050565b60006060828403121561077b57600080fd5b6107856060610a06565b9050600082013567ffffffffffffffff8111156107a157600080fd5b6107ad8482850161073f565b600083015250602082013567ffffffffffffffff8111156107cd57600080fd5b6107d98482850161073f565b60208301525060406107ed848285016106e0565b60408301525092915050565b60006020828403121561080b57600080fd5b6000610819848285016106e0565b91505092915050565b6000806020838503121561083557600080fd5b600083013567ffffffffffffffff81111561084f57600080fd5b61085b858286016106f5565b92509250509250929050565b60006020828403121561087957600080fd5b600082013567ffffffffffffffff81111561089357600080fd5b61089f84828501610769565b91505092915050565b6108b181610a78565b82525050565b6108c081610a8a565b82525050565b60006108d182610a5c565b6108db8185610a67565b93506108eb818560208601610ac3565b6108f481610bb7565b840191505092915050565b600061090c601383610a67565b915061091782610bc8565b602082019050919050565b600061092f600e83610a67565b915061093a82610bf1565b602082019050919050565b600060208201905061095a60008301846108a8565b92915050565b600060408201905061097560008301856108a8565b61098260208301846108a8565b9392505050565b600060208201905061099e60008301846108b7565b92915050565b600060208201905081810360008301526109be81846108c6565b905092915050565b600060208201905081810360008301526109df816108ff565b9050919050565b600060208201905081810360008301526109ff81610922565b9050919050565b6000610a10610a21565b9050610a1c8282610b28565b919050565b6000604051905090565b600067ffffffffffffffff821115610a4657610a45610b88565b5b610a4f82610bb7565b9050602081019050919050565b600081519050919050565b600082825260208201905092915050565b6000610a8382610a94565b9050919050565b6000819050919050565b600073ffffffffffffffffffffffffffffffffffffffff82169050919050565b82818337600083830152505050565b60005b83811015610ae1578082015181840152602081019050610ac6565b83811115610af0576000848401525b50505050565b60006002820490506001821680610b0e57607f821691505b60208210811415610b2257610b21610b59565b5b50919050565b610b3182610bb7565b810181811067ffffffffffffffff82111715610b5057610b4f610b88565b5b80604052505050565b7f4e487b7100000000000000000000000000000000000000000000000000000000600052602260045260246000fd5b7f4e487b7100000000000000000000000000000000000000000000000000000000600052604160045260246000fd5b6000601f19601f8301169050919050565b7f416c726561647920696e697469616c697a656400000000000000000000000000600082015250565b7f4e6f7420617574686f72697a6564000000000000000000000000000000000000600082015250565b610c2381610a78565b8114610c2e57600080fd5b5056fea264697066735822122019e06b5916ddb2a0caa804a8f81d73e4095ca9978cb323c3140e364e2dad8d5964736f6c63430008040033",
  "linkReferences": {},
  "deployedLinkReferences": {}
}