{
  "_format": "hh-sol-artifact-1",
  "contractName": "ConstructorParams",
  "sourceName": "contracts/ConstructorParams.sol",
  "abi": [
    {
      "inputs": [
        {
          "internalType": "address",
          "name": "someAddress",
          "type": "address"
        },
        {
          "internalType": "bytes32",
          "name": "uri",
          "type": "bytes32"
        },
        {
          "internalType": "uint256",
          "name": "someId",
          "type": "uint256"
        },
        {
          "internalType": "address[]",
          "name": "someAddresses",
          "type": "address[]"
        },
        {
          "internalType": "uint256[]",
          "name": "someIds",
          "type": "uint256[]"
        }
      ],
      "stateMutability": "nonpayable",
      "type": "constructor"
    },
    {
      "inputs": [],
      "name": "contractUri",
      "outputs": [
        {
          "internalType": "bytes32",
          "name": "",
          "type": "bytes32"
        }
      ],
      "stateMutability": "view",
      "type": "function"
    },
    {
      "inputs": [],
      "name": "getPublishMetadataUri",
      "outputs": [
        {
          "internalType": "string",
          "name": "",
          "type": "string"
        }
      ],
      "stateMutability": "view",
      "type": "function"
    },
    {
      "inputs": [
        {
          "internalType": "string",
          "name": "uri",
          "type": "string"
        }
      ],
      "name": "setPublishMetadataUri",
      "outputs": [],
      "stateMutability": "nonpayable",
      "type": "function"
    }
  ],
  "bytecode": "0x60a06040523480156200001157600080fd5b5060405162000c8538038062000c8583398181016040528101906200003791906200043b565b3373ffffffffffffffffffffffffffffffffffffffff1663d5f394886040518163ffffffff1660e01b815260040160206040518083038186803b1580156200007e57600080fd5b505afa15801562000093573d6000803e3d6000fd5b505050506040513d601f19601f82011682018060405250810190620000b991906200040f565b600160006101000a81548173ffffffffffffffffffffffffffffffffffffffff021916908373ffffffffffffffffffffffffffffffffffffffff16021790555083608081815250508260028190555084600360006101000a81548173ffffffffffffffffffffffffffffffffffffffff021916908373ffffffffffffffffffffffffffffffffffffffff16021790555081600490805190602001906200016192919062000186565b5080600590805190602001906200017a92919062000215565b50505050505062000682565b82805482825590600052602060002090810192821562000202579160200282015b82811115620002015782518260006101000a81548173ffffffffffffffffffffffffffffffffffffffff021916908373ffffffffffffffffffffffffffffffffffffffff16021790555091602001919060010190620001a7565b5b50905062000211919062000267565b5090565b82805482825590600052602060002090810192821562000254579160200282015b828111156200025357825182559160200191906001019062000236565b5b50905062000263919062000267565b5090565b5b808211156200028257600081600090555060010162000268565b5090565b60006200029d620002978462000518565b620004ef565b90508083825260208201905082856020860282011115620002bd57600080fd5b60005b85811015620002f15781620002d6888262000370565b845260208401935060208301925050600181019050620002c0565b5050509392505050565b6000620003126200030c8462000547565b620004ef565b905080838252602082019050828560208602820111156200033257600080fd5b60005b858110156200036657816200034b8882620003f8565b84526020840193506020830192505060018101905062000335565b5050509392505050565b600081519050620003818162000634565b92915050565b600082601f8301126200039957600080fd5b8151620003ab84826020860162000286565b91505092915050565b600082601f830112620003c657600080fd5b8151620003d8848260208601620002fb565b91505092915050565b600081519050620003f2816200064e565b92915050565b600081519050620004098162000668565b92915050565b6000602082840312156200042257600080fd5b6000620004328482850162000370565b91505092915050565b600080600080600060a086880312156200045457600080fd5b6000620004648882890162000370565b95505060206200047788828901620003e1565b94505060406200048a88828901620003f8565b935050606086015167ffffffffffffffff811115620004a857600080fd5b620004b68882890162000387565b925050608086015167ffffffffffffffff811115620004d457600080fd5b620004e288828901620003b4565b9150509295509295909350565b6000620004fb6200050e565b9050620005098282620005be565b919050565b6000604051905090565b600067ffffffffffffffff821115620005365762000535620005f4565b5b602082029050602081019050919050565b600067ffffffffffffffff821115620005655762000564620005f4565b5b602082029050602081019050919050565b6000620005838262000594565b9050919050565b6000819050919050565b600073ffffffffffffffffffffffffffffffffffffffff82169050919050565b6000819050919050565b620005c98262000623565b810181811067ffffffffffffffff82111715620005eb57620005ea620005f4565b5b80604052505050565b7f4e487b7100000000000000000000000000000000000000000000000000000000600052604160045260246000fd5b6000601f19601f8301169050919050565b6200063f8162000576565b81146200064b57600080fd5b50565b62000659816200058a565b81146200066557600080fd5b50565b6200067381620005b4565b81146200067f57600080fd5b50565b6080516105e76200069e600039600061010a01526105e76000f3fe608060405234801561001057600080fd5b50600436106100415760003560e01c806374ea128814610046578063c0e24d5e14610062578063d3684f4014610080575b600080fd5b610060600480360381019061005b91906102c9565b61009e565b005b61006a610108565b6040516100779190610375565b60405180910390f35b61008861012c565b6040516100959190610390565b60405180910390f35b60008080546100ac90610490565b9050146100ee576040517f08c379a00000000000000000000000000000000000000000000000000000000081526004016100e5906103b2565b60405180910390fd5b80600090805190602001906101049291906101be565b5050565b7f000000000000000000000000000000000000000000000000000000000000000081565b60606000805461013b90610490565b80601f016020809104026020016040519081016040528092919081815260200182805461016790610490565b80156101b45780601f10610189576101008083540402835291602001916101b4565b820191906000526020600020905b81548152906001019060200180831161019757829003601f168201915b5050505050905090565b8280546101ca90610490565b90600052602060002090601f0160209004810192826101ec5760008555610233565b82601f1061020557805160ff1916838001178555610233565b82800160010185558215610233579182015b82811115610232578251825591602001919060010190610217565b5b5090506102409190610244565b5090565b5b8082111561025d576000816000905550600101610245565b5090565b600061027461026f846103f7565b6103d2565b90508281526020810184848401111561028c57600080fd5b61029784828561044e565b509392505050565b600082601f8301126102b057600080fd5b81356102c0848260208601610261565b91505092915050565b6000602082840312156102db57600080fd5b600082013567ffffffffffffffff8111156102f557600080fd5b6103018482850161029f565b91505092915050565b61031381610444565b82525050565b600061032482610428565b61032e8185610433565b935061033e81856020860161045d565b61034781610551565b840191505092915050565b600061035f602683610433565b915061036a82610562565b604082019050919050565b600060208201905061038a600083018461030a565b92915050565b600060208201905081810360008301526103aa8184610319565b905092915050565b600060208201905081810360008301526103cb81610352565b9050919050565b60006103dc6103ed565b90506103e882826104c2565b919050565b6000604051905090565b600067ffffffffffffffff82111561041257610411610522565b5b61041b82610551565b9050602081019050919050565b600081519050919050565b600082825260208201905092915050565b6000819050919050565b82818337600083830152505050565b60005b8381101561047b578082015181840152602081019050610460565b8381111561048a576000848401525b50505050565b600060028204905060018216806104a857607f821691505b602082108114156104bc576104bb6104f3565b5b50919050565b6104cb82610551565b810181811067ffffffffffffffff821117156104ea576104e9610522565b5b80604052505050565b7f4e487b7100000000000000000000000000000000000000000000000000000000600052602260045260246000fd5b7f4e487b7100000000000000000000000000000000000000000000000000000000600052604160045260246000fd5b6000601f19601f8301169050919050565b7f5075626c6973686564206d6574616461746120616c726561647920696e69746960008201527f616c697a6564000000000000000000000000000000000000000000000000000060208201525056fea2646970667358221220d30a5c2a4c21ad0013ede5250cee71013bac7c96812ccb03d14d50484a00613064736f6c63430008040033",
  "linkReferences": {},
  "deployedLinkReferences": {}
}