{
  "_format": "hh-sol-artifact-1",
  "contractName": "Greeter",
  "sourceName": "contracts/Greeter.sol",
  "abi": [
    {
      "inputs": [],
      "stateMutability": "nonpayable",
      "type": "constructor"
    },
    {
      "anonymous": false,
      "inputs": [
        {
          "indexed": true,
          "internalType": "address",
          "name": "owner",
          "type": "address"
        },
        {
          "indexed": true,
          "internalType": "address",
          "name": "spender",
          "type": "address"
        },
        {
          "indexed": false,
          "internalType": "uint256",
          "name": "value",
          "type": "uint256"
        }
      ],
      "name": "Approval",
      "type": "event"
    },
    {
      "anonymous": false,
      "inputs": [
        {
          "indexed": true,
          "internalType": "address",
          "name": "from",
          "type": "address"
        },
        {
          "indexed": true,
          "internalType": "address",
          "name": "to",
          "type": "address"
        },
        {
          "indexed": false,
          "internalType": "uint256",
          "name": "value",
          "type": "uint256"
        }
      ],
      "name": "Transfer",
      "type": "event"
    },
    {
      "inputs": [
        {
          "internalType": "address",
          "name": "owner",
          "type": "address"
        },
        {
          "internalType": "address",
          "name": "spender",
          "type": "address"
        }
      ],
      "name": "allowance",
      "outputs": [
        {
          "internalType": "uint256",
          "name": "",
          "type": "uint256"
        }
      ],
      "stateMutability": "view",
      "type": "function"
    },
    {
      "inputs": [
        {
          "internalType": "address",
          "name": "spender",
          "type": "address"
        },
        {
          "internalType": "uint256",
          "name": "amount",
          "type": "uint256"
        }
      ],
      "name": "approve",
      "outputs": [
        {
          "internalType": "bool",
          "name": "",
          "type": "bool"
        }
      ],
      "stateMutability": "nonpayable",
      "type": "function"
    },
    {
      "inputs": [
        {
          "internalType": "address",
          "name": "account",
          "type": "address"
        }
      ],
      "name": "balanceOf",
      "outputs": [
        {
          "internalType": "uint256",
          "name": "",
          "type": "uint256"
        }
      ],
      "stateMutability": "view",
      "type": "function"
    },
    {
      "inputs": [],
      "name": "contractURI",
      "outputs": [
        {
          "internalType": "string",
          "name": "",
          "type": "string"
        }
      ],
      "stateMutability": "view",
      "type": "function"
    },
    {
      "inputs": [],
      "name": "decimals",
      "outputs": [
        {
          "internalType": "uint8",
          "name": "",
          "type": "uint8"
        }
      ],
      "stateMutability": "view",
      "type": "function"
    },
    {
      "inputs": [
        {
          "internalType": "address",
          "name": "spender",
          "type": "address"
        },
        {
          "internalType": "uint256",
          "name": "subtractedValue",
          "type": "uint256"
        }
      ],
      "name": "decreaseAllowance",
      "outputs": [
        {
          "internalType": "bool",
          "name": "",
          "type": "bool"
        }
      ],
      "stateMutability": "nonpayable",
      "type": "function"
    },
    {
      "inputs": [],
      "name": "getPublishMetadataUri",
      "outputs": [
        {
          "internalType": "string",
          "name": "",
          "type": "string"
        }
      ],
      "stateMutability": "view",
      "type": "function"
    },
    {
      "inputs": [
        {
          "internalType": "address",
          "name": "spender",
          "type": "address"
        },
        {
          "internalType": "uint256",
          "name": "addedValue",
          "type": "uint256"
        }
      ],
      "name": "increaseAllowance",
      "outputs": [
        {
          "internalType": "bool",
          "name": "",
          "type": "bool"
        }
      ],
      "stateMutability": "nonpayable",
      "type": "function"
    },
    {
      "inputs": [
        {
          "internalType": "uint256",
          "name": "quantity",
          "type": "uint256"
        }
      ],
      "name": "mint",
      "outputs": [],
      "stateMutability": "payable",
      "type": "function"
    },
    {
      "inputs": [],
      "name": "name",
      "outputs": [
        {
          "internalType": "string",
          "name": "",
          "type": "string"
        }
      ],
      "stateMutability": "view",
      "type": "function"
    },
    {
      "inputs": [
        {
          "components": [
            {
              "internalType": "string",
              "name": "publishMetadataUri",
              "type": "string"
            },
            {
              "internalType": "string",
              "name": "contractURI",
              "type": "string"
            }
          ],
          "internalType": "struct ThirdwebContract.ThirdwebInfo",
          "name": "_thirdwebInfo",
          "type": "tuple"
        }
      ],
      "name": "setThirdwebInfo",
      "outputs": [],
      "stateMutability": "nonpayable",
      "type": "function"
    },
    {
      "inputs": [],
      "name": "symbol",
      "outputs": [
        {
          "internalType": "string",
          "name": "",
          "type": "string"
        }
      ],
      "stateMutability": "view",
      "type": "function"
    },
    {
      "inputs": [],
      "name": "totalSupply",
      "outputs": [
        {
          "internalType": "uint256",
          "name": "",
          "type": "uint256"
        }
      ],
      "stateMutability": "view",
      "type": "function"
    },
    {
      "inputs": [
        {
          "internalType": "address",
          "name": "to",
          "type": "address"
        },
        {
          "internalType": "uint256",
          "name": "amount",
          "type": "uint256"
        }
      ],
      "name": "transfer",
      "outputs": [
        {
          "internalType": "bool",
          "name": "",
          "type": "bool"
        }
      ],
      "stateMutability": "nonpayable",
      "type": "function"
    },
    {
      "inputs": [
        {
          "internalType": "address",
          "name": "from",
          "type": "address"
        },
        {
          "internalType": "address",
          "name": "to",
          "type": "address"
        },
        {
          "internalType": "uint256",
          "name": "amount",
          "type": "uint256"
        }
      ],
      "name": "transferFrom",
      "outputs": [
        {
          "internalType": "bool",
          "name": "",
          "type": "bool"
        }
      ],
      "stateMutability": "nonpayable",
      "type": "function"
    }
  ],
  "bytecode": "0x60806040523480156200001157600080fd5b506040518060400160405280600781526020017f4d79546f6b656e000000000000000000000000000000000000000000000000008152506040518060400160405280600381526020017f4d544b0000000000000000000000000000000000000000000000000000000000815250816003908051906020019062000096929190620000b8565b508060049080519060200190620000af929190620000b8565b505050620001cd565b828054620000c69062000168565b90600052602060002090601f016020900481019282620000ea576000855562000136565b82601f106200010557805160ff191683800117855562000136565b8280016001018555821562000136579182015b828111156200013557825182559160200191906001019062000118565b5b50905062000145919062000149565b5090565b5b80821115620001645760008160009055506001016200014a565b5090565b600060028204905060018216806200018157607f821691505b602082108114156200019857620001976200019e565b5b50919050565b7f4e487b7100000000000000000000000000000000000000000000000000000000600052602260045260246000fd5b611b4780620001dd6000396000f3fe6080604052600436106100e85760003560e01c80637f1a36ed1161008a578063a9059cbb11610059578063a9059cbb1461030f578063d3684f401461034c578063dd62ed3e14610377578063e8a3d485146103b4576100e8565b80637f1a36ed1461026257806395d89b411461028b578063a0712d68146102b6578063a457c2d7146102d2576100e8565b806323b872dd116100c657806323b872dd14610180578063313ce567146101bd57806339509351146101e857806370a0823114610225576100e8565b806306fdde03146100ed578063095ea7b31461011857806318160ddd14610155575b600080fd5b3480156100f957600080fd5b506101026103df565b60405161010f91906114b6565b60405180910390f35b34801561012457600080fd5b5061013f600480360381019061013a9190611254565b610471565b60405161014c919061149b565b60405180910390f35b34801561016157600080fd5b5061016a610494565b60405161017791906115f8565b60405180910390f35b34801561018c57600080fd5b506101a760048036038101906101a29190611205565b61049e565b6040516101b4919061149b565b60405180910390f35b3480156101c957600080fd5b506101d26104cd565b6040516101df9190611613565b60405180910390f35b3480156101f457600080fd5b5061020f600480360381019061020a9190611254565b6104d6565b60405161021c919061149b565b60405180910390f35b34801561023157600080fd5b5061024c600480360381019061024791906111a0565b610580565b60405161025991906115f8565b60405180910390f35b34801561026e57600080fd5b5061028960048036038101906102849190611290565b6105c8565b005b34801561029757600080fd5b506102a0610652565b6040516102ad91906114b6565b60405180910390f35b6102d060048036038101906102cb91906112d1565b6106e4565b005b3480156102de57600080fd5b506102f960048036038101906102f49190611254565b6106f1565b604051610306919061149b565b60405180910390f35b34801561031b57600080fd5b5061033660048036038101906103319190611254565b6107db565b604051610343919061149b565b60405180910390f35b34801561035857600080fd5b506103616107fe565b60405161036e91906114b6565b60405180910390f35b34801561038357600080fd5b5061039e600480360381019061039991906111c9565b610890565b6040516103ab91906115f8565b60405180910390f35b3480156103c057600080fd5b506103c9610917565b6040516103d691906114b6565b60405180910390f35b6060600380546103ee9061178d565b80601f016020809104026020016040519081016040528092919081815260200182805461041a9061178d565b80156104675780601f1061043c57610100808354040283529160200191610467565b820191906000526020600020905b81548152906001019060200180831161044a57829003601f168201915b5050505050905090565b60008061047c6109a5565b90506104898185856109ad565b600191505092915050565b6000600254905090565b6000806104a96109a5565b90506104b6858285610b78565b6104c1858585610c04565b60019150509392505050565b60006012905090565b6000806104e16109a5565b9050610575818585600160008673ffffffffffffffffffffffffffffffffffffffff1673ffffffffffffffffffffffffffffffffffffffff16815260200190815260200160002060008973ffffffffffffffffffffffffffffffffffffffff1673ffffffffffffffffffffffffffffffffffffffff1681526020019081526020016000205461057091906116a0565b6109ad565b600191505092915050565b60008060008373ffffffffffffffffffffffffffffffffffffffff1673ffffffffffffffffffffffffffffffffffffffff168152602001908152602001600020549050919050565b6000600580546105d79061178d565b905014610619576040517f08c379a000000000000000000000000000000000000000000000000000000000815260040161061090611598565b60405180910390fd5b806000015160059080519060200190610633929190610fef565b5080602001516006908051906020019061064e929190610fef565b5050565b6060600480546106619061178d565b80601f016020809104026020016040519081016040528092919081815260200182805461068d9061178d565b80156106da5780601f106106af576101008083540402835291602001916106da565b820191906000526020600020905b8154815290600101906020018083116106bd57829003601f168201915b5050505050905090565b6106ee3382610e85565b50565b6000806106fc6109a5565b90506000600160008373ffffffffffffffffffffffffffffffffffffffff1673ffffffffffffffffffffffffffffffffffffffff16815260200190815260200160002060008673ffffffffffffffffffffffffffffffffffffffff1673ffffffffffffffffffffffffffffffffffffffff168152602001908152602001600020549050838110156107c2576040517f08c379a00000000000000000000000000000000000000000000000000000000081526004016107b9906115b8565b60405180910390fd5b6107cf82868684036109ad565b60019250505092915050565b6000806107e66109a5565b90506107f3818585610c04565b600191505092915050565b60606005805461080d9061178d565b80601f01602080910402602001604051908101604052809291908181526020018280546108399061178d565b80156108865780601f1061085b57610100808354040283529160200191610886565b820191906000526020600020905b81548152906001019060200180831161086957829003601f168201915b5050505050905090565b6000600160008473ffffffffffffffffffffffffffffffffffffffff1673ffffffffffffffffffffffffffffffffffffffff16815260200190815260200160002060008373ffffffffffffffffffffffffffffffffffffffff1673ffffffffffffffffffffffffffffffffffffffff16815260200190815260200160002054905092915050565b600680546109249061178d565b80601f01602080910402602001604051908101604052809291908181526020018280546109509061178d565b801561099d5780601f106109725761010080835404028352916020019161099d565b820191906000526020600020905b81548152906001019060200180831161098057829003601f168201915b505050505081565b600033905090565b600073ffffffffffffffffffffffffffffffffffffffff168373ffffffffffffffffffffffffffffffffffffffff161415610a1d576040517f08c379a0000000000000000000000000000000000000000000000000000000008152600401610a1490611578565b60405180910390fd5b600073ffffffffffffffffffffffffffffffffffffffff168273ffffffffffffffffffffffffffffffffffffffff161415610a8d576040517f08c379a0000000000000000000000000000000000000000000000000000000008152600401610a84906114f8565b60405180910390fd5b80600160008573ffffffffffffffffffffffffffffffffffffffff1673ffffffffffffffffffffffffffffffffffffffff16815260200190815260200160002060008473ffffffffffffffffffffffffffffffffffffffff1673ffffffffffffffffffffffffffffffffffffffff168152602001908152602001600020819055508173ffffffffffffffffffffffffffffffffffffffff168373ffffffffffffffffffffffffffffffffffffffff167f8c5be1e5ebec7d5bd14f71427d1e84f3dd0314c0f7b2291e5b200ac8c7c3b92583604051610b6b91906115f8565b60405180910390a3505050565b6000610b848484610890565b90507fffffffffffffffffffffffffffffffffffffffffffffffffffffffffffffffff8114610bfe5781811015610bf0576040517f08c379a0000000000000000000000000000000000000000000000000000000008152600401610be790611518565b60405180910390fd5b610bfd84848484036109ad565b5b50505050565b600073ffffffffffffffffffffffffffffffffffffffff168373ffffffffffffffffffffffffffffffffffffffff161415610c74576040517f08c379a0000000000000000000000000000000000000000000000000000000008152600401610c6b90611558565b60405180910390fd5b600073ffffffffffffffffffffffffffffffffffffffff168273ffffffffffffffffffffffffffffffffffffffff161415610ce4576040517f08c379a0000000000000000000000000000000000000000000000000000000008152600401610cdb906114d8565b60405180910390fd5b610cef838383610fe5565b60008060008573ffffffffffffffffffffffffffffffffffffffff1673ffffffffffffffffffffffffffffffffffffffff16815260200190815260200160002054905081811015610d75576040517f08c379a0000000000000000000000000000000000000000000000000000000008152600401610d6c90611538565b60405180910390fd5b8181036000808673ffffffffffffffffffffffffffffffffffffffff1673ffffffffffffffffffffffffffffffffffffffff16815260200190815260200160002081905550816000808573ffffffffffffffffffffffffffffffffffffffff1673ffffffffffffffffffffffffffffffffffffffff1681526020019081526020016000206000828254610e0891906116a0565b925050819055508273ffffffffffffffffffffffffffffffffffffffff168473ffffffffffffffffffffffffffffffffffffffff167fddf252ad1be2c89b69c2b068fc378daa952ba7f163c4a11628f55a4df523b3ef84604051610e6c91906115f8565b60405180910390a3610e7f848484610fea565b50505050565b600073ffffffffffffffffffffffffffffffffffffffff168273ffffffffffffffffffffffffffffffffffffffff161415610ef5576040517f08c379a0000000000000000000000000000000000000000000000000000000008152600401610eec906115d8565b60405180910390fd5b610f0160008383610fe5565b8060026000828254610f1391906116a0565b92505081905550806000808473ffffffffffffffffffffffffffffffffffffffff1673ffffffffffffffffffffffffffffffffffffffff1681526020019081526020016000206000828254610f6891906116a0565b925050819055508173ffffffffffffffffffffffffffffffffffffffff16600073ffffffffffffffffffffffffffffffffffffffff167fddf252ad1be2c89b69c2b068fc378daa952ba7f163c4a11628f55a4df523b3ef83604051610fcd91906115f8565b60405180910390a3610fe160008383610fea565b5050565b505050565b505050565b828054610ffb9061178d565b90600052602060002090601f01602090048101928261101d5760008555611064565b82601f1061103657805160ff1916838001178555611064565b82800160010185558215611064579182015b82811115611063578251825591602001919060010190611048565b5b5090506110719190611075565b5090565b5b8082111561108e576000816000905550600101611076565b5090565b60006110a56110a084611653565b61162e565b9050828152602081018484840111156110bd57600080fd5b6110c884828561174b565b509392505050565b6000813590506110df81611ae3565b92915050565b600082601f8301126110f657600080fd5b8135611106848260208601611092565b91505092915050565b60006040828403121561112157600080fd5b61112b604061162e565b9050600082013567ffffffffffffffff81111561114757600080fd5b611153848285016110e5565b600083015250602082013567ffffffffffffffff81111561117357600080fd5b61117f848285016110e5565b60208301525092915050565b60008135905061119a81611afa565b92915050565b6000602082840312156111b257600080fd5b60006111c0848285016110d0565b91505092915050565b600080604083850312156111dc57600080fd5b60006111ea858286016110d0565b92505060206111fb858286016110d0565b9150509250929050565b60008060006060848603121561121a57600080fd5b6000611228868287016110d0565b9350506020611239868287016110d0565b925050604061124a8682870161118b565b9150509250925092565b6000806040838503121561126757600080fd5b6000611275858286016110d0565b92505060206112868582860161118b565b9150509250929050565b6000602082840312156112a257600080fd5b600082013567ffffffffffffffff8111156112bc57600080fd5b6112c88482850161110f565b91505092915050565b6000602082840312156112e357600080fd5b60006112f18482850161118b565b91505092915050565b61130381611708565b82525050565b600061131482611684565b61131e818561168f565b935061132e81856020860161175a565b6113378161187d565b840191505092915050565b600061134f60238361168f565b915061135a8261188e565b604082019050919050565b600061137260228361168f565b915061137d826118dd565b604082019050919050565b6000611395601d8361168f565b91506113a08261192c565b602082019050919050565b60006113b860268361168f565b91506113c382611955565b604082019050919050565b60006113db60258361168f565b91506113e6826119a4565b604082019050919050565b60006113fe60248361168f565b9150611409826119f3565b604082019050919050565b600061142160138361168f565b915061142c82611a42565b602082019050919050565b600061144460258361168f565b915061144f82611a6b565b604082019050919050565b6000611467601f8361168f565b915061147282611aba565b602082019050919050565b61148681611734565b82525050565b6114958161173e565b82525050565b60006020820190506114b060008301846112fa565b92915050565b600060208201905081810360008301526114d08184611309565b905092915050565b600060208201905081810360008301526114f181611342565b9050919050565b6000602082019050818103600083015261151181611365565b9050919050565b6000602082019050818103600083015261153181611388565b9050919050565b60006020820190508181036000830152611551816113ab565b9050919050565b60006020820190508181036000830152611571816113ce565b9050919050565b60006020820190508181036000830152611591816113f1565b9050919050565b600060208201905081810360008301526115b181611414565b9050919050565b600060208201905081810360008301526115d181611437565b9050919050565b600060208201905081810360008301526115f18161145a565b9050919050565b600060208201905061160d600083018461147d565b92915050565b6000602082019050611628600083018461148c565b92915050565b6000611638611649565b905061164482826117bf565b919050565b6000604051905090565b600067ffffffffffffffff82111561166e5761166d61184e565b5b6116778261187d565b9050602081019050919050565b600081519050919050565b600082825260208201905092915050565b60006116ab82611734565b91506116b683611734565b9250827fffffffffffffffffffffffffffffffffffffffffffffffffffffffffffffffff038211156116eb576116ea6117f0565b5b828201905092915050565b600061170182611714565b9050919050565b60008115159050919050565b600073ffffffffffffffffffffffffffffffffffffffff82169050919050565b6000819050919050565b600060ff82169050919050565b82818337600083830152505050565b60005b8381101561177857808201518184015260208101905061175d565b83811115611787576000848401525b50505050565b600060028204905060018216806117a557607f821691505b602082108114156117b9576117b861181f565b5b50919050565b6117c88261187d565b810181811067ffffffffffffffff821117156117e7576117e661184e565b5b80604052505050565b7f4e487b7100000000000000000000000000000000000000000000000000000000600052601160045260246000fd5b7f4e487b7100000000000000000000000000000000000000000000000000000000600052602260045260246000fd5b7f4e487b7100000000000000000000000000000000000000000000000000000000600052604160045260246000fd5b6000601f19601f8301169050919050565b7f45524332303a207472616e7366657220746f20746865207a65726f206164647260008201527f6573730000000000000000000000000000000000000000000000000000000000602082015250565b7f45524332303a20617070726f766520746f20746865207a65726f20616464726560008201527f7373000000000000000000000000000000000000000000000000000000000000602082015250565b7f45524332303a20696e73756666696369656e7420616c6c6f77616e6365000000600082015250565b7f45524332303a207472616e7366657220616d6f756e742065786365656473206260008201527f616c616e63650000000000000000000000000000000000000000000000000000602082015250565b7f45524332303a207472616e736665722066726f6d20746865207a65726f20616460008201527f6472657373000000000000000000000000000000000000000000000000000000602082015250565b7f45524332303a20617070726f76652066726f6d20746865207a65726f2061646460008201527f7265737300000000000000000000000000000000000000000000000000000000602082015250565b7f416c726561647920696e697469616c697a656400000000000000000000000000600082015250565b7f45524332303a2064656372656173656420616c6c6f77616e63652062656c6f7760008201527f207a65726f000000000000000000000000000000000000000000000000000000602082015250565b7f45524332303a206d696e7420746f20746865207a65726f206164647265737300600082015250565b611aec816116f6565b8114611af757600080fd5b50565b611b0381611734565b8114611b0e57600080fd5b5056fea264697066735822122096d2a2f0e8bb9488b2ec6c146808fda14e496d56c470bfc09191a1f646c2f34f64736f6c63430008040033",
  "linkReferences": {},
  "deployedLinkReferences": {}
}