{
  "_format": "hh-sol-artifact-1",
  "contractName": "Greeter",
  "sourceName": "contracts/Greeter.sol",
  "abi": [
    {
      "inputs": [],
      "stateMutability": "nonpayable",
      "type": "constructor"
    },
    {
      "anonymous": false,
      "inputs": [
        {
          "indexed": true,
          "internalType": "address",
          "name": "owner",
          "type": "address"
        },
        {
          "indexed": true,
          "internalType": "address",
          "name": "spender",
          "type": "address"
        },
        {
          "indexed": false,
          "internalType": "uint256",
          "name": "value",
          "type": "uint256"
        }
      ],
      "name": "Approval",
      "type": "event"
    },
    {
      "anonymous": false,
      "inputs": [
        {
          "indexed": false,
          "internalType": "address",
          "name": "prevOwner",
          "type": "address"
        },
        {
          "indexed": false,
          "internalType": "address",
          "name": "newOwner",
          "type": "address"
        }
      ],
      "name": "OwnerUpdated",
      "type": "event"
    },
    {
      "anonymous": false,
      "inputs": [
        {
          "indexed": true,
          "internalType": "address",
          "name": "from",
          "type": "address"
        },
        {
          "indexed": true,
          "internalType": "address",
          "name": "to",
          "type": "address"
        },
        {
          "indexed": false,
          "internalType": "uint256",
          "name": "value",
          "type": "uint256"
        }
      ],
      "name": "Transfer",
      "type": "event"
    },
    {
      "inputs": [
        {
          "internalType": "address",
          "name": "owner",
          "type": "address"
        },
        {
          "internalType": "address",
          "name": "spender",
          "type": "address"
        }
      ],
      "name": "allowance",
      "outputs": [
        {
          "internalType": "uint256",
          "name": "",
          "type": "uint256"
        }
      ],
      "stateMutability": "view",
      "type": "function"
    },
    {
      "inputs": [
        {
          "internalType": "address",
          "name": "spender",
          "type": "address"
        },
        {
          "internalType": "uint256",
          "name": "amount",
          "type": "uint256"
        }
      ],
      "name": "approve",
      "outputs": [
        {
          "internalType": "bool",
          "name": "",
          "type": "bool"
        }
      ],
      "stateMutability": "nonpayable",
      "type": "function"
    },
    {
      "inputs": [
        {
          "internalType": "address",
          "name": "account",
          "type": "address"
        }
      ],
      "name": "balanceOf",
      "outputs": [
        {
          "internalType": "uint256",
          "name": "",
          "type": "uint256"
        }
      ],
      "stateMutability": "view",
      "type": "function"
    },
    {
      "inputs": [],
      "name": "contractURI",
      "outputs": [
        {
          "internalType": "string",
          "name": "",
          "type": "string"
        }
      ],
      "stateMutability": "view",
      "type": "function"
    },
    {
      "inputs": [],
      "name": "decimals",
      "outputs": [
        {
          "internalType": "uint8",
          "name": "",
          "type": "uint8"
        }
      ],
      "stateMutability": "view",
      "type": "function"
    },
    {
      "inputs": [
        {
          "internalType": "address",
          "name": "spender",
          "type": "address"
        },
        {
          "internalType": "uint256",
          "name": "subtractedValue",
          "type": "uint256"
        }
      ],
      "name": "decreaseAllowance",
      "outputs": [
        {
          "internalType": "bool",
          "name": "",
          "type": "bool"
        }
      ],
      "stateMutability": "nonpayable",
      "type": "function"
    },
    {
      "inputs": [],
      "name": "getPublishMetadataUri",
      "outputs": [
        {
          "internalType": "string",
          "name": "",
          "type": "string"
        }
      ],
      "stateMutability": "view",
      "type": "function"
    },
    {
      "inputs": [
        {
          "internalType": "address",
          "name": "spender",
          "type": "address"
        },
        {
          "internalType": "uint256",
          "name": "addedValue",
          "type": "uint256"
        }
      ],
      "name": "increaseAllowance",
      "outputs": [
        {
          "internalType": "bool",
          "name": "",
          "type": "bool"
        }
      ],
      "stateMutability": "nonpayable",
      "type": "function"
    },
    {
      "inputs": [],
      "name": "name",
      "outputs": [
        {
          "internalType": "string",
          "name": "",
          "type": "string"
        }
      ],
      "stateMutability": "view",
      "type": "function"
    },
    {
      "inputs": [],
      "name": "owner",
      "outputs": [
        {
          "internalType": "address",
          "name": "",
          "type": "address"
        }
      ],
      "stateMutability": "view",
      "type": "function"
    },
    {
      "inputs": [
        {
          "internalType": "string",
          "name": "_uri",
          "type": "string"
        }
      ],
      "name": "setContractURI",
      "outputs": [],
      "stateMutability": "nonpayable",
      "type": "function"
    },
    {
      "inputs": [
        {
          "internalType": "address",
          "name": "_newOwner",
          "type": "address"
        }
      ],
      "name": "setOwner",
      "outputs": [],
      "stateMutability": "nonpayable",
      "type": "function"
    },
    {
      "inputs": [
        {
          "components": [
            {
              "internalType": "string",
              "name": "publishMetadataUri",
              "type": "string"
            },
            {
              "internalType": "string",
              "name": "contractURI",
              "type": "string"
            },
            {
              "internalType": "address",
              "name": "owner",
              "type": "address"
            }
          ],
          "internalType": "struct ThirdwebContract.ThirdwebInfo",
          "name": "_thirdwebInfo",
          "type": "tuple"
        }
      ],
      "name": "setThirdwebInfo",
      "outputs": [],
      "stateMutability": "nonpayable",
      "type": "function"
    },
    {
      "inputs": [],
      "name": "symbol",
      "outputs": [
        {
          "internalType": "string",
          "name": "",
          "type": "string"
        }
      ],
      "stateMutability": "view",
      "type": "function"
    },
    {
      "inputs": [],
      "name": "totalSupply",
      "outputs": [
        {
          "internalType": "uint256",
          "name": "",
          "type": "uint256"
        }
      ],
      "stateMutability": "view",
      "type": "function"
    },
    {
      "inputs": [
        {
          "internalType": "address",
          "name": "to",
          "type": "address"
        },
        {
          "internalType": "uint256",
          "name": "amount",
          "type": "uint256"
        }
      ],
      "name": "transfer",
      "outputs": [
        {
          "internalType": "bool",
          "name": "",
          "type": "bool"
        }
      ],
      "stateMutability": "nonpayable",
      "type": "function"
    },
    {
      "inputs": [
        {
          "internalType": "address",
          "name": "from",
          "type": "address"
        },
        {
          "internalType": "address",
          "name": "to",
          "type": "address"
        },
        {
          "internalType": "uint256",
          "name": "amount",
          "type": "uint256"
        }
      ],
      "name": "transferFrom",
      "outputs": [
        {
          "internalType": "bool",
          "name": "",
          "type": "bool"
        }
      ],
      "stateMutability": "nonpayable",
      "type": "function"
    }
  ],
  "bytecode": "0x60806040523480156200001157600080fd5b506040518060400160405280600781526020017f4d79546f6b656e000000000000000000000000000000000000000000000000008152506040518060400160405280600381526020017f4d544b0000000000000000000000000000000000000000000000000000000000815250816003908051906020019062000096929190620000b8565b508060049080519060200190620000af929190620000b8565b505050620001cd565b828054620000c69062000168565b90600052602060002090601f016020900481019282620000ea576000855562000136565b82601f106200010557805160ff191683800117855562000136565b8280016001018555821562000136579182015b828111156200013557825182559160200191906001019062000118565b5b50905062000145919062000149565b5090565b5b80821115620001645760008160009055506001016200014a565b5090565b600060028204905060018216806200018157607f821691505b602082108114156200019857620001976200019e565b5b50919050565b7f4e487b7100000000000000000000000000000000000000000000000000000000600052602260045260246000fd5b611c5280620001dd6000396000f3fe608060405234801561001057600080fd5b506004361061010b5760003560e01c80638da5cb5b116100a2578063a9059cbb11610071578063a9059cbb146102ce578063bba53cba146102fe578063d3684f401461031a578063dd62ed3e14610338578063e8a3d485146103685761010b565b80638da5cb5b14610246578063938e3d7b1461026457806395d89b4114610280578063a457c2d71461029e5761010b565b806323b872dd116100de57806323b872dd14610198578063313ce567146101c857806339509351146101e657806370a08231146102165761010b565b806306fdde0314610110578063095ea7b31461012e57806313af40351461015e57806318160ddd1461017a575b600080fd5b610118610386565b60405161012591906115c1565b60405180910390f35b610148600480360381019061014391906112f0565b610418565b60405161015591906115a6565b60405180910390f35b6101786004803603810190610173919061123c565b61043b565b005b610182610527565b60405161018f9190611703565b60405180910390f35b6101b260048036038101906101ad91906112a1565b610531565b6040516101bf91906115a6565b60405180910390f35b6101d0610560565b6040516101dd919061171e565b60405180910390f35b61020060048036038101906101fb91906112f0565b610569565b60405161020d91906115a6565b60405180910390f35b610230600480360381019061022b919061123c565b6105a0565b60405161023d9190611703565b60405180910390f35b61024e6105e8565b60405161025b9190611562565b60405180910390f35b61027e6004803603810190610279919061132c565b61060e565b005b61028861066b565b60405161029591906115c1565b60405180910390f35b6102b860048036038101906102b391906112f0565b6106fd565b6040516102c591906115a6565b60405180910390f35b6102e860048036038101906102e391906112f0565b610774565b6040516102f591906115a6565b60405180910390f35b61031860048036038101906103139190611371565b610797565b005b610322610866565b60405161032f91906115c1565b60405180910390f35b610352600480360381019061034d9190611265565b6108f8565b60405161035f9190611703565b60405180910390f35b61037061097f565b60405161037d91906115c1565b60405180910390f35b60606003805461039590611898565b80601f01602080910402602001604051908101604052809291908181526020018280546103c190611898565b801561040e5780601f106103e35761010080835404028352916020019161040e565b820191906000526020600020905b8154815290600101906020018083116103f157829003601f168201915b5050505050905090565b600080610423610a0d565b9050610430818585610a15565b600191505092915050565b610443610be0565b610482576040517f08c379a0000000000000000000000000000000000000000000000000000000008152600401610479906116e3565b60405180910390fd5b6000600560009054906101000a900473ffffffffffffffffffffffffffffffffffffffff16905081600560006101000a81548173ffffffffffffffffffffffffffffffffffffffff021916908373ffffffffffffffffffffffffffffffffffffffff1602179055507f8292fce18fa69edf4db7b94ea2e58241df0ae57f97e0a6c9b29067028bf92d76818360405161051b92919061157d565b60405180910390a15050565b6000600254905090565b60008061053c610a0d565b9050610549858285610c38565b610554858585610cc4565b60019150509392505050565b60006012905090565b600080610574610a0d565b905061059581858561058685896108f8565b61059091906117ab565b610a15565b600191505092915050565b60008060008373ffffffffffffffffffffffffffffffffffffffff1673ffffffffffffffffffffffffffffffffffffffff168152602001908152602001600020549050919050565b600560009054906101000a900473ffffffffffffffffffffffffffffffffffffffff1681565b610616610f45565b610655576040517f08c379a000000000000000000000000000000000000000000000000000000000815260040161064c906116e3565b60405180910390fd5b818160069190610666929190610fa7565b505050565b60606004805461067a90611898565b80601f01602080910402602001604051908101604052809291908181526020018280546106a690611898565b80156106f35780601f106106c8576101008083540402835291602001916106f3565b820191906000526020600020905b8154815290600101906020018083116106d657829003601f168201915b5050505050905090565b600080610708610a0d565b9050600061071682866108f8565b90508381101561075b576040517f08c379a0000000000000000000000000000000000000000000000000000000008152600401610752906116c3565b60405180910390fd5b6107688286868403610a15565b60019250505092915050565b60008061077f610a0d565b905061078c818585610cc4565b600191505092915050565b6000600780546107a690611898565b9050146107e8576040517f08c379a00000000000000000000000000000000000000000000000000000000081526004016107df906116a3565b60405180910390fd5b80600001516007908051906020019061080292919061102d565b5080602001516006908051906020019061081d92919061102d565b508060400151600560006101000a81548173ffffffffffffffffffffffffffffffffffffffff021916908373ffffffffffffffffffffffffffffffffffffffff16021790555050565b60606007805461087590611898565b80601f01602080910402602001604051908101604052809291908181526020018280546108a190611898565b80156108ee5780601f106108c3576101008083540402835291602001916108ee565b820191906000526020600020905b8154815290600101906020018083116108d157829003601f168201915b5050505050905090565b6000600160008473ffffffffffffffffffffffffffffffffffffffff1673ffffffffffffffffffffffffffffffffffffffff16815260200190815260200160002060008373ffffffffffffffffffffffffffffffffffffffff1673ffffffffffffffffffffffffffffffffffffffff16815260200190815260200160002054905092915050565b6006805461098c90611898565b80601f01602080910402602001604051908101604052809291908181526020018280546109b890611898565b8015610a055780601f106109da57610100808354040283529160200191610a05565b820191906000526020600020905b8154815290600101906020018083116109e857829003601f168201915b505050505081565b600033905090565b600073ffffffffffffffffffffffffffffffffffffffff168373ffffffffffffffffffffffffffffffffffffffff161415610a85576040517f08c379a0000000000000000000000000000000000000000000000000000000008152600401610a7c90611683565b60405180910390fd5b600073ffffffffffffffffffffffffffffffffffffffff168273ffffffffffffffffffffffffffffffffffffffff161415610af5576040517f08c379a0000000000000000000000000000000000000000000000000000000008152600401610aec90611603565b60405180910390fd5b80600160008573ffffffffffffffffffffffffffffffffffffffff1673ffffffffffffffffffffffffffffffffffffffff16815260200190815260200160002060008473ffffffffffffffffffffffffffffffffffffffff1673ffffffffffffffffffffffffffffffffffffffff168152602001908152602001600020819055508173ffffffffffffffffffffffffffffffffffffffff168373ffffffffffffffffffffffffffffffffffffffff167f8c5be1e5ebec7d5bd14f71427d1e84f3dd0314c0f7b2291e5b200ac8c7c3b92583604051610bd39190611703565b60405180910390a3505050565b6000600560009054906101000a900473ffffffffffffffffffffffffffffffffffffffff1673ffffffffffffffffffffffffffffffffffffffff163373ffffffffffffffffffffffffffffffffffffffff1614905090565b6000610c4484846108f8565b90507fffffffffffffffffffffffffffffffffffffffffffffffffffffffffffffffff8114610cbe5781811015610cb0576040517f08c379a0000000000000000000000000000000000000000000000000000000008152600401610ca790611623565b60405180910390fd5b610cbd8484848403610a15565b5b50505050565b600073ffffffffffffffffffffffffffffffffffffffff168373ffffffffffffffffffffffffffffffffffffffff161415610d34576040517f08c379a0000000000000000000000000000000000000000000000000000000008152600401610d2b90611663565b60405180910390fd5b600073ffffffffffffffffffffffffffffffffffffffff168273ffffffffffffffffffffffffffffffffffffffff161415610da4576040517f08c379a0000000000000000000000000000000000000000000000000000000008152600401610d9b906115e3565b60405180910390fd5b610daf838383610f9d565b60008060008573ffffffffffffffffffffffffffffffffffffffff1673ffffffffffffffffffffffffffffffffffffffff16815260200190815260200160002054905081811015610e35576040517f08c379a0000000000000000000000000000000000000000000000000000000008152600401610e2c90611643565b60405180910390fd5b8181036000808673ffffffffffffffffffffffffffffffffffffffff1673ffffffffffffffffffffffffffffffffffffffff16815260200190815260200160002081905550816000808573ffffffffffffffffffffffffffffffffffffffff1673ffffffffffffffffffffffffffffffffffffffff1681526020019081526020016000206000828254610ec891906117ab565b925050819055508273ffffffffffffffffffffffffffffffffffffffff168473ffffffffffffffffffffffffffffffffffffffff167fddf252ad1be2c89b69c2b068fc378daa952ba7f163c4a11628f55a4df523b3ef84604051610f2c9190611703565b60405180910390a3610f3f848484610fa2565b50505050565b6000600560009054906101000a900473ffffffffffffffffffffffffffffffffffffffff1673ffffffffffffffffffffffffffffffffffffffff163373ffffffffffffffffffffffffffffffffffffffff1614905090565b505050565b505050565b828054610fb390611898565b90600052602060002090601f016020900481019282610fd5576000855561101c565b82601f10610fee57803560ff191683800117855561101c565b8280016001018555821561101c579182015b8281111561101b578235825591602001919060010190611000565b5b50905061102991906110b3565b5090565b82805461103990611898565b90600052602060002090601f01602090048101928261105b57600085556110a2565b82601f1061107457805160ff19168380011785556110a2565b828001600101855582156110a2579182015b828111156110a1578251825591602001919060010190611086565b5b5090506110af91906110b3565b5090565b5b808211156110cc5760008160009055506001016110b4565b5090565b60006110e36110de8461175e565b611739565b9050828152602081018484840111156110fb57600080fd5b611106848285611856565b509392505050565b60008135905061111d81611bee565b92915050565b60008083601f84011261113557600080fd5b8235905067ffffffffffffffff81111561114e57600080fd5b60208301915083600182028301111561116657600080fd5b9250929050565b600082601f83011261117e57600080fd5b813561118e8482602086016110d0565b91505092915050565b6000606082840312156111a957600080fd5b6111b36060611739565b9050600082013567ffffffffffffffff8111156111cf57600080fd5b6111db8482850161116d565b600083015250602082013567ffffffffffffffff8111156111fb57600080fd5b6112078482850161116d565b602083015250604061121b8482850161110e565b60408301525092915050565b60008135905061123681611c05565b92915050565b60006020828403121561124e57600080fd5b600061125c8482850161110e565b91505092915050565b6000806040838503121561127857600080fd5b60006112868582860161110e565b92505060206112978582860161110e565b9150509250929050565b6000806000606084860312156112b657600080fd5b60006112c48682870161110e565b93505060206112d58682870161110e565b92505060406112e686828701611227565b9150509250925092565b6000806040838503121561130357600080fd5b60006113118582860161110e565b925050602061132285828601611227565b9150509250929050565b6000806020838503121561133f57600080fd5b600083013567ffffffffffffffff81111561135957600080fd5b61136585828601611123565b92509250509250929050565b60006020828403121561138357600080fd5b600082013567ffffffffffffffff81111561139d57600080fd5b6113a984828501611197565b91505092915050565b6113bb81611801565b82525050565b6113ca81611813565b82525050565b60006113db8261178f565b6113e5818561179a565b93506113f5818560208601611865565b6113fe81611988565b840191505092915050565b600061141660238361179a565b915061142182611999565b604082019050919050565b600061143960228361179a565b9150611444826119e8565b604082019050919050565b600061145c601d8361179a565b915061146782611a37565b602082019050919050565b600061147f60268361179a565b915061148a82611a60565b604082019050919050565b60006114a260258361179a565b91506114ad82611aaf565b604082019050919050565b60006114c560248361179a565b91506114d082611afe565b604082019050919050565b60006114e860138361179a565b91506114f382611b4d565b602082019050919050565b600061150b60258361179a565b915061151682611b76565b604082019050919050565b600061152e600e8361179a565b915061153982611bc5565b602082019050919050565b61154d8161183f565b82525050565b61155c81611849565b82525050565b600060208201905061157760008301846113b2565b92915050565b600060408201905061159260008301856113b2565b61159f60208301846113b2565b9392505050565b60006020820190506115bb60008301846113c1565b92915050565b600060208201905081810360008301526115db81846113d0565b905092915050565b600060208201905081810360008301526115fc81611409565b9050919050565b6000602082019050818103600083015261161c8161142c565b9050919050565b6000602082019050818103600083015261163c8161144f565b9050919050565b6000602082019050818103600083015261165c81611472565b9050919050565b6000602082019050818103600083015261167c81611495565b9050919050565b6000602082019050818103600083015261169c816114b8565b9050919050565b600060208201905081810360008301526116bc816114db565b9050919050565b600060208201905081810360008301526116dc816114fe565b9050919050565b600060208201905081810360008301526116fc81611521565b9050919050565b60006020820190506117186000830184611544565b92915050565b60006020820190506117336000830184611553565b92915050565b6000611743611754565b905061174f82826118ca565b919050565b6000604051905090565b600067ffffffffffffffff82111561177957611778611959565b5b61178282611988565b9050602081019050919050565b600081519050919050565b600082825260208201905092915050565b60006117b68261183f565b91506117c18361183f565b9250827fffffffffffffffffffffffffffffffffffffffffffffffffffffffffffffffff038211156117f6576117f56118fb565b5b828201905092915050565b600061180c8261181f565b9050919050565b60008115159050919050565b600073ffffffffffffffffffffffffffffffffffffffff82169050919050565b6000819050919050565b600060ff82169050919050565b82818337600083830152505050565b60005b83811015611883578082015181840152602081019050611868565b83811115611892576000848401525b50505050565b600060028204905060018216806118b057607f821691505b602082108114156118c4576118c361192a565b5b50919050565b6118d382611988565b810181811067ffffffffffffffff821117156118f2576118f1611959565b5b80604052505050565b7f4e487b7100000000000000000000000000000000000000000000000000000000600052601160045260246000fd5b7f4e487b7100000000000000000000000000000000000000000000000000000000600052602260045260246000fd5b7f4e487b7100000000000000000000000000000000000000000000000000000000600052604160045260246000fd5b6000601f19601f8301169050919050565b7f45524332303a207472616e7366657220746f20746865207a65726f206164647260008201527f6573730000000000000000000000000000000000000000000000000000000000602082015250565b7f45524332303a20617070726f766520746f20746865207a65726f20616464726560008201527f7373000000000000000000000000000000000000000000000000000000000000602082015250565b7f45524332303a20696e73756666696369656e7420616c6c6f77616e6365000000600082015250565b7f45524332303a207472616e7366657220616d6f756e742065786365656473206260008201527f616c616e63650000000000000000000000000000000000000000000000000000602082015250565b7f45524332303a207472616e736665722066726f6d20746865207a65726f20616460008201527f6472657373000000000000000000000000000000000000000000000000000000602082015250565b7f45524332303a20617070726f76652066726f6d20746865207a65726f2061646460008201527f7265737300000000000000000000000000000000000000000000000000000000602082015250565b7f416c726561647920696e697469616c697a656400000000000000000000000000600082015250565b7f45524332303a2064656372656173656420616c6c6f77616e63652062656c6f7760008201527f207a65726f000000000000000000000000000000000000000000000000000000602082015250565b7f4e6f7420617574686f72697a6564000000000000000000000000000000000000600082015250565b611bf781611801565b8114611c0257600080fd5b50565b611c0e8161183f565b8114611c1957600080fd5b5056fea2646970667358221220f1c8c798b97454640ef7211943f65df376df5513fb3d5a2f7dcfea181b7bee7064736f6c63430008040033",
  "linkReferences": {},
  "deployedLinkReferences": {}
}