{
  "_format": "hh-sol-artifact-1",
  "contractName": "Greeter",
  "sourceName": "contracts/Greeter.sol",
  "abi": [
    {
      "inputs": [],
      "stateMutability": "nonpayable",
      "type": "constructor"
    },
    {
      "anonymous": false,
      "inputs": [
        {
          "indexed": true,
          "internalType": "address",
          "name": "owner",
          "type": "address"
        },
        {
          "indexed": true,
          "internalType": "address",
          "name": "spender",
          "type": "address"
        },
        {
          "indexed": false,
          "internalType": "uint256",
          "name": "value",
          "type": "uint256"
        }
      ],
      "name": "Approval",
      "type": "event"
    },
    {
      "anonymous": false,
      "inputs": [
        {
          "indexed": true,
          "internalType": "address",
          "name": "from",
          "type": "address"
        },
        {
          "indexed": true,
          "internalType": "address",
          "name": "to",
          "type": "address"
        },
        {
          "indexed": false,
          "internalType": "uint256",
          "name": "value",
          "type": "uint256"
        }
      ],
      "name": "Transfer",
      "type": "event"
    },
    {
      "inputs": [
        {
          "internalType": "address",
          "name": "owner",
          "type": "address"
        },
        {
          "internalType": "address",
          "name": "spender",
          "type": "address"
        }
      ],
      "name": "allowance",
      "outputs": [
        {
          "internalType": "uint256",
          "name": "",
          "type": "uint256"
        }
      ],
      "stateMutability": "view",
      "type": "function"
    },
    {
      "inputs": [
        {
          "internalType": "address",
          "name": "spender",
          "type": "address"
        },
        {
          "internalType": "uint256",
          "name": "amount",
          "type": "uint256"
        }
      ],
      "name": "approve",
      "outputs": [
        {
          "internalType": "bool",
          "name": "",
          "type": "bool"
        }
      ],
      "stateMutability": "nonpayable",
      "type": "function"
    },
    {
      "inputs": [
        {
          "internalType": "address",
          "name": "account",
          "type": "address"
        }
      ],
      "name": "balanceOf",
      "outputs": [
        {
          "internalType": "uint256",
          "name": "",
          "type": "uint256"
        }
      ],
      "stateMutability": "view",
      "type": "function"
    },
    {
      "inputs": [],
      "name": "contractURI",
      "outputs": [
        {
          "internalType": "string",
          "name": "",
          "type": "string"
        }
      ],
      "stateMutability": "view",
      "type": "function"
    },
    {
      "inputs": [],
      "name": "decimals",
      "outputs": [
        {
          "internalType": "uint8",
          "name": "",
          "type": "uint8"
        }
      ],
      "stateMutability": "view",
      "type": "function"
    },
    {
      "inputs": [
        {
          "internalType": "address",
          "name": "spender",
          "type": "address"
        },
        {
          "internalType": "uint256",
          "name": "subtractedValue",
          "type": "uint256"
        }
      ],
      "name": "decreaseAllowance",
      "outputs": [
        {
          "internalType": "bool",
          "name": "",
          "type": "bool"
        }
      ],
      "stateMutability": "nonpayable",
      "type": "function"
    },
    {
      "inputs": [],
      "name": "getPublishMetadataUri",
      "outputs": [
        {
          "internalType": "string",
          "name": "",
          "type": "string"
        }
      ],
      "stateMutability": "view",
      "type": "function"
    },
    {
      "inputs": [
        {
          "internalType": "address",
          "name": "spender",
          "type": "address"
        },
        {
          "internalType": "uint256",
          "name": "addedValue",
          "type": "uint256"
        }
      ],
      "name": "increaseAllowance",
      "outputs": [
        {
          "internalType": "bool",
          "name": "",
          "type": "bool"
        }
      ],
      "stateMutability": "nonpayable",
      "type": "function"
    },
    {
      "inputs": [],
      "name": "name",
      "outputs": [
        {
          "internalType": "string",
          "name": "",
          "type": "string"
        }
      ],
      "stateMutability": "view",
      "type": "function"
    },
    {
      "inputs": [
        {
          "components": [
            {
              "internalType": "string",
              "name": "publishMetadataUri",
              "type": "string"
            },
            {
              "internalType": "string",
              "name": "contractURI",
              "type": "string"
            }
          ],
          "internalType": "struct ThirdwebContract.ThirdwebInfo",
          "name": "_thirdwebInfo",
          "type": "tuple"
        }
      ],
      "name": "setThirdwebInfo",
      "outputs": [],
      "stateMutability": "nonpayable",
      "type": "function"
    },
    {
      "inputs": [],
      "name": "symbol",
      "outputs": [
        {
          "internalType": "string",
          "name": "",
          "type": "string"
        }
      ],
      "stateMutability": "view",
      "type": "function"
    },
    {
      "inputs": [],
      "name": "totalSupply",
      "outputs": [
        {
          "internalType": "uint256",
          "name": "",
          "type": "uint256"
        }
      ],
      "stateMutability": "view",
      "type": "function"
    },
    {
      "inputs": [
        {
          "internalType": "address",
          "name": "to",
          "type": "address"
        },
        {
          "internalType": "uint256",
          "name": "amount",
          "type": "uint256"
        }
      ],
      "name": "transfer",
      "outputs": [
        {
          "internalType": "bool",
          "name": "",
          "type": "bool"
        }
      ],
      "stateMutability": "nonpayable",
      "type": "function"
    },
    {
      "inputs": [
        {
          "internalType": "address",
          "name": "from",
          "type": "address"
        },
        {
          "internalType": "address",
          "name": "to",
          "type": "address"
        },
        {
          "internalType": "uint256",
          "name": "amount",
          "type": "uint256"
        }
      ],
      "name": "transferFrom",
      "outputs": [
        {
          "internalType": "bool",
          "name": "",
          "type": "bool"
        }
      ],
      "stateMutability": "nonpayable",
      "type": "function"
    }
  ],
  "bytecode": "0x60806040523480156200001157600080fd5b506040518060400160405280600781526020017f4d79546f6b656e000000000000000000000000000000000000000000000000008152506040518060400160405280600381526020017f4d544b0000000000000000000000000000000000000000000000000000000000815250816003908051906020019062000096929190620000b8565b508060049080519060200190620000af929190620000b8565b505050620001cd565b828054620000c69062000168565b90600052602060002090601f016020900481019282620000ea576000855562000136565b82601f106200010557805160ff191683800117855562000136565b8280016001018555821562000136579182015b828111156200013557825182559160200191906001019062000118565b5b50905062000145919062000149565b5090565b5b80821115620001645760008160009055506001016200014a565b5090565b600060028204905060018216806200018157607f821691505b602082108114156200019857620001976200019e565b5b50919050565b7f4e487b7100000000000000000000000000000000000000000000000000000000600052602260045260246000fd5b61187580620001dd6000396000f3fe608060405234801561001057600080fd5b50600436106100ea5760003560e01c80637f1a36ed1161008c578063a9059cbb11610066578063a9059cbb14610273578063d3684f40146102a3578063dd62ed3e146102c1578063e8a3d485146102f1576100ea565b80637f1a36ed1461020957806395d89b4114610225578063a457c2d714610243576100ea565b806323b872dd116100c857806323b872dd1461015b578063313ce5671461018b57806339509351146101a957806370a08231146101d9576100ea565b806306fdde03146100ef578063095ea7b31461010d57806318160ddd1461013d575b600080fd5b6100f761030f565b604051610104919061122d565b60405180910390f35b61012760048036038101906101229190611017565b6103a1565b6040516101349190611212565b60405180910390f35b6101456103c4565b604051610152919061134f565b60405180910390f35b61017560048036038101906101709190610fc8565b6103ce565b6040516101829190611212565b60405180910390f35b6101936103fd565b6040516101a0919061136a565b60405180910390f35b6101c360048036038101906101be9190611017565b610406565b6040516101d09190611212565b60405180910390f35b6101f360048036038101906101ee9190610f63565b6104b0565b604051610200919061134f565b60405180910390f35b610223600480360381019061021e9190611053565b6104f8565b005b61022d610582565b60405161023a919061122d565b60405180910390f35b61025d60048036038101906102589190611017565b610614565b60405161026a9190611212565b60405180910390f35b61028d60048036038101906102889190611017565b6106fe565b60405161029a9190611212565b60405180910390f35b6102ab610721565b6040516102b8919061122d565b60405180910390f35b6102db60048036038101906102d69190610f8c565b6107b3565b6040516102e8919061134f565b60405180910390f35b6102f961083a565b604051610306919061122d565b60405180910390f35b60606003805461031e906114e4565b80601f016020809104026020016040519081016040528092919081815260200182805461034a906114e4565b80156103975780601f1061036c57610100808354040283529160200191610397565b820191906000526020600020905b81548152906001019060200180831161037a57829003601f168201915b5050505050905090565b6000806103ac6108c8565b90506103b98185856108d0565b600191505092915050565b6000600254905090565b6000806103d96108c8565b90506103e6858285610a9b565b6103f1858585610b27565b60019150509392505050565b60006012905090565b6000806104116108c8565b90506104a5818585600160008673ffffffffffffffffffffffffffffffffffffffff1673ffffffffffffffffffffffffffffffffffffffff16815260200190815260200160002060008973ffffffffffffffffffffffffffffffffffffffff1673ffffffffffffffffffffffffffffffffffffffff168152602001908152602001600020546104a091906113f7565b6108d0565b600191505092915050565b60008060008373ffffffffffffffffffffffffffffffffffffffff1673ffffffffffffffffffffffffffffffffffffffff168152602001908152602001600020549050919050565b600060058054610507906114e4565b905014610549576040517f08c379a00000000000000000000000000000000000000000000000000000000081526004016105409061130f565b60405180910390fd5b806000015160059080519060200190610563929190610db2565b5080602001516006908051906020019061057e929190610db2565b5050565b606060048054610591906114e4565b80601f01602080910402602001604051908101604052809291908181526020018280546105bd906114e4565b801561060a5780601f106105df5761010080835404028352916020019161060a565b820191906000526020600020905b8154815290600101906020018083116105ed57829003601f168201915b5050505050905090565b60008061061f6108c8565b90506000600160008373ffffffffffffffffffffffffffffffffffffffff1673ffffffffffffffffffffffffffffffffffffffff16815260200190815260200160002060008673ffffffffffffffffffffffffffffffffffffffff1673ffffffffffffffffffffffffffffffffffffffff168152602001908152602001600020549050838110156106e5576040517f08c379a00000000000000000000000000000000000000000000000000000000081526004016106dc9061132f565b60405180910390fd5b6106f282868684036108d0565b60019250505092915050565b6000806107096108c8565b9050610716818585610b27565b600191505092915050565b606060058054610730906114e4565b80601f016020809104026020016040519081016040528092919081815260200182805461075c906114e4565b80156107a95780601f1061077e576101008083540402835291602001916107a9565b820191906000526020600020905b81548152906001019060200180831161078c57829003601f168201915b5050505050905090565b6000600160008473ffffffffffffffffffffffffffffffffffffffff1673ffffffffffffffffffffffffffffffffffffffff16815260200190815260200160002060008373ffffffffffffffffffffffffffffffffffffffff1673ffffffffffffffffffffffffffffffffffffffff16815260200190815260200160002054905092915050565b60068054610847906114e4565b80601f0160208091040260200160405190810160405280929190818152602001828054610873906114e4565b80156108c05780601f10610895576101008083540402835291602001916108c0565b820191906000526020600020905b8154815290600101906020018083116108a357829003601f168201915b505050505081565b600033905090565b600073ffffffffffffffffffffffffffffffffffffffff168373ffffffffffffffffffffffffffffffffffffffff161415610940576040517f08c379a0000000000000000000000000000000000000000000000000000000008152600401610937906112ef565b60405180910390fd5b600073ffffffffffffffffffffffffffffffffffffffff168273ffffffffffffffffffffffffffffffffffffffff1614156109b0576040517f08c379a00000000000000000000000000000000000000000000000000000000081526004016109a79061126f565b60405180910390fd5b80600160008573ffffffffffffffffffffffffffffffffffffffff1673ffffffffffffffffffffffffffffffffffffffff16815260200190815260200160002060008473ffffffffffffffffffffffffffffffffffffffff1673ffffffffffffffffffffffffffffffffffffffff168152602001908152602001600020819055508173ffffffffffffffffffffffffffffffffffffffff168373ffffffffffffffffffffffffffffffffffffffff167f8c5be1e5ebec7d5bd14f71427d1e84f3dd0314c0f7b2291e5b200ac8c7c3b92583604051610a8e919061134f565b60405180910390a3505050565b6000610aa784846107b3565b90507fffffffffffffffffffffffffffffffffffffffffffffffffffffffffffffffff8114610b215781811015610b13576040517f08c379a0000000000000000000000000000000000000000000000000000000008152600401610b0a9061128f565b60405180910390fd5b610b2084848484036108d0565b5b50505050565b600073ffffffffffffffffffffffffffffffffffffffff168373ffffffffffffffffffffffffffffffffffffffff161415610b97576040517f08c379a0000000000000000000000000000000000000000000000000000000008152600401610b8e906112cf565b60405180910390fd5b600073ffffffffffffffffffffffffffffffffffffffff168273ffffffffffffffffffffffffffffffffffffffff161415610c07576040517f08c379a0000000000000000000000000000000000000000000000000000000008152600401610bfe9061124f565b60405180910390fd5b610c12838383610da8565b60008060008573ffffffffffffffffffffffffffffffffffffffff1673ffffffffffffffffffffffffffffffffffffffff16815260200190815260200160002054905081811015610c98576040517f08c379a0000000000000000000000000000000000000000000000000000000008152600401610c8f906112af565b60405180910390fd5b8181036000808673ffffffffffffffffffffffffffffffffffffffff1673ffffffffffffffffffffffffffffffffffffffff16815260200190815260200160002081905550816000808573ffffffffffffffffffffffffffffffffffffffff1673ffffffffffffffffffffffffffffffffffffffff1681526020019081526020016000206000828254610d2b91906113f7565b925050819055508273ffffffffffffffffffffffffffffffffffffffff168473ffffffffffffffffffffffffffffffffffffffff167fddf252ad1be2c89b69c2b068fc378daa952ba7f163c4a11628f55a4df523b3ef84604051610d8f919061134f565b60405180910390a3610da2848484610dad565b50505050565b505050565b505050565b828054610dbe906114e4565b90600052602060002090601f016020900481019282610de05760008555610e27565b82601f10610df957805160ff1916838001178555610e27565b82800160010185558215610e27579182015b82811115610e26578251825591602001919060010190610e0b565b5b509050610e349190610e38565b5090565b5b80821115610e51576000816000905550600101610e39565b5090565b6000610e68610e63846113aa565b611385565b905082815260208101848484011115610e8057600080fd5b610e8b8482856114a2565b509392505050565b600081359050610ea281611811565b92915050565b600082601f830112610eb957600080fd5b8135610ec9848260208601610e55565b91505092915050565b600060408284031215610ee457600080fd5b610eee6040611385565b9050600082013567ffffffffffffffff811115610f0a57600080fd5b610f1684828501610ea8565b600083015250602082013567ffffffffffffffff811115610f3657600080fd5b610f4284828501610ea8565b60208301525092915050565b600081359050610f5d81611828565b92915050565b600060208284031215610f7557600080fd5b6000610f8384828501610e93565b91505092915050565b60008060408385031215610f9f57600080fd5b6000610fad85828601610e93565b9250506020610fbe85828601610e93565b9150509250929050565b600080600060608486031215610fdd57600080fd5b6000610feb86828701610e93565b9350506020610ffc86828701610e93565b925050604061100d86828701610f4e565b9150509250925092565b6000806040838503121561102a57600080fd5b600061103885828601610e93565b925050602061104985828601610f4e565b9150509250929050565b60006020828403121561106557600080fd5b600082013567ffffffffffffffff81111561107f57600080fd5b61108b84828501610ed2565b91505092915050565b61109d8161145f565b82525050565b60006110ae826113db565b6110b881856113e6565b93506110c88185602086016114b1565b6110d1816115d4565b840191505092915050565b60006110e96023836113e6565b91506110f4826115e5565b604082019050919050565b600061110c6022836113e6565b915061111782611634565b604082019050919050565b600061112f601d836113e6565b915061113a82611683565b602082019050919050565b60006111526026836113e6565b915061115d826116ac565b604082019050919050565b60006111756025836113e6565b9150611180826116fb565b604082019050919050565b60006111986024836113e6565b91506111a38261174a565b604082019050919050565b60006111bb6013836113e6565b91506111c682611799565b602082019050919050565b60006111de6025836113e6565b91506111e9826117c2565b604082019050919050565b6111fd8161148b565b82525050565b61120c81611495565b82525050565b60006020820190506112276000830184611094565b92915050565b6000602082019050818103600083015261124781846110a3565b905092915050565b60006020820190508181036000830152611268816110dc565b9050919050565b60006020820190508181036000830152611288816110ff565b9050919050565b600060208201905081810360008301526112a881611122565b9050919050565b600060208201905081810360008301526112c881611145565b9050919050565b600060208201905081810360008301526112e881611168565b9050919050565b600060208201905081810360008301526113088161118b565b9050919050565b60006020820190508181036000830152611328816111ae565b9050919050565b60006020820190508181036000830152611348816111d1565b9050919050565b600060208201905061136460008301846111f4565b92915050565b600060208201905061137f6000830184611203565b92915050565b600061138f6113a0565b905061139b8282611516565b919050565b6000604051905090565b600067ffffffffffffffff8211156113c5576113c46115a5565b5b6113ce826115d4565b9050602081019050919050565b600081519050919050565b600082825260208201905092915050565b60006114028261148b565b915061140d8361148b565b9250827fffffffffffffffffffffffffffffffffffffffffffffffffffffffffffffffff0382111561144257611441611547565b5b828201905092915050565b60006114588261146b565b9050919050565b60008115159050919050565b600073ffffffffffffffffffffffffffffffffffffffff82169050919050565b6000819050919050565b600060ff82169050919050565b82818337600083830152505050565b60005b838110156114cf5780820151818401526020810190506114b4565b838111156114de576000848401525b50505050565b600060028204905060018216806114fc57607f821691505b602082108114156115105761150f611576565b5b50919050565b61151f826115d4565b810181811067ffffffffffffffff8211171561153e5761153d6115a5565b5b80604052505050565b7f4e487b7100000000000000000000000000000000000000000000000000000000600052601160045260246000fd5b7f4e487b7100000000000000000000000000000000000000000000000000000000600052602260045260246000fd5b7f4e487b7100000000000000000000000000000000000000000000000000000000600052604160045260246000fd5b6000601f19601f8301169050919050565b7f45524332303a207472616e7366657220746f20746865207a65726f206164647260008201527f6573730000000000000000000000000000000000000000000000000000000000602082015250565b7f45524332303a20617070726f766520746f20746865207a65726f20616464726560008201527f7373000000000000000000000000000000000000000000000000000000000000602082015250565b7f45524332303a20696e73756666696369656e7420616c6c6f77616e6365000000600082015250565b7f45524332303a207472616e7366657220616d6f756e742065786365656473206260008201527f616c616e63650000000000000000000000000000000000000000000000000000602082015250565b7f45524332303a207472616e736665722066726f6d20746865207a65726f20616460008201527f6472657373000000000000000000000000000000000000000000000000000000602082015250565b7f45524332303a20617070726f76652066726f6d20746865207a65726f2061646460008201527f7265737300000000000000000000000000000000000000000000000000000000602082015250565b7f416c726561647920696e697469616c697a656400000000000000000000000000600082015250565b7f45524332303a2064656372656173656420616c6c6f77616e63652062656c6f7760008201527f207a65726f000000000000000000000000000000000000000000000000000000602082015250565b61181a8161144d565b811461182557600080fd5b50565b6118318161148b565b811461183c57600080fd5b5056fea264697066735822122039b199ee2450ce191f49ededca5ab8b7ff26d68d403cf82c3c0e7d4ff3e73da764736f6c63430008040033",
  "linkReferences": {},
  "deployedLinkReferences": {}
}