{
  "_format": "hh-sol-artifact-1",
  "contractName": "Greeter",
  "sourceName": "contracts/Greeter.sol",
  "abi": [
    {
      "inputs": [],
      "stateMutability": "nonpayable",
      "type": "constructor"
    },
    {
      "anonymous": false,
      "inputs": [
        {
          "indexed": true,
          "internalType": "address",
          "name": "owner",
          "type": "address"
        },
        {
          "indexed": true,
          "internalType": "address",
          "name": "spender",
          "type": "address"
        },
        {
          "indexed": false,
          "internalType": "uint256",
          "name": "value",
          "type": "uint256"
        }
      ],
      "name": "Approval",
      "type": "event"
    },
    {
      "anonymous": false,
      "inputs": [
        {
          "indexed": true,
          "internalType": "address",
          "name": "previousOwner",
          "type": "address"
        },
        {
          "indexed": true,
          "internalType": "address",
          "name": "newOwner",
          "type": "address"
        }
      ],
      "name": "OwnershipTransferred",
      "type": "event"
    },
    {
      "anonymous": false,
      "inputs": [
        {
          "indexed": true,
          "internalType": "address",
          "name": "from",
          "type": "address"
        },
        {
          "indexed": true,
          "internalType": "address",
          "name": "to",
          "type": "address"
        },
        {
          "indexed": false,
          "internalType": "uint256",
          "name": "value",
          "type": "uint256"
        }
      ],
      "name": "Transfer",
      "type": "event"
    },
    {
      "inputs": [
        {
          "internalType": "address",
          "name": "owner",
          "type": "address"
        },
        {
          "internalType": "address",
          "name": "spender",
          "type": "address"
        }
      ],
      "name": "allowance",
      "outputs": [
        {
          "internalType": "uint256",
          "name": "",
          "type": "uint256"
        }
      ],
      "stateMutability": "view",
      "type": "function"
    },
    {
      "inputs": [
        {
          "internalType": "address",
          "name": "spender",
          "type": "address"
        },
        {
          "internalType": "uint256",
          "name": "amount",
          "type": "uint256"
        }
      ],
      "name": "approve",
      "outputs": [
        {
          "internalType": "bool",
          "name": "",
          "type": "bool"
        }
      ],
      "stateMutability": "nonpayable",
      "type": "function"
    },
    {
      "inputs": [
        {
          "internalType": "address",
          "name": "account",
          "type": "address"
        }
      ],
      "name": "balanceOf",
      "outputs": [
        {
          "internalType": "uint256",
          "name": "",
          "type": "uint256"
        }
      ],
      "stateMutability": "view",
      "type": "function"
    },
    {
      "inputs": [],
      "name": "decimals",
      "outputs": [
        {
          "internalType": "uint8",
          "name": "",
          "type": "uint8"
        }
      ],
      "stateMutability": "view",
      "type": "function"
    },
    {
      "inputs": [
        {
          "internalType": "address",
          "name": "spender",
          "type": "address"
        },
        {
          "internalType": "uint256",
          "name": "subtractedValue",
          "type": "uint256"
        }
      ],
      "name": "decreaseAllowance",
      "outputs": [
        {
          "internalType": "bool",
          "name": "",
          "type": "bool"
        }
      ],
      "stateMutability": "nonpayable",
      "type": "function"
    },
    {
      "inputs": [],
      "name": "deployer",
      "outputs": [
        {
          "internalType": "address",
          "name": "",
          "type": "address"
        }
      ],
      "stateMutability": "view",
      "type": "function"
    },
    {
      "inputs": [],
      "name": "getPublishMetadataUri",
      "outputs": [
        {
          "internalType": "string",
          "name": "",
          "type": "string"
        }
      ],
      "stateMutability": "view",
      "type": "function"
    },
    {
      "inputs": [
        {
          "internalType": "address",
          "name": "spender",
          "type": "address"
        },
        {
          "internalType": "uint256",
          "name": "addedValue",
          "type": "uint256"
        }
      ],
      "name": "increaseAllowance",
      "outputs": [
        {
          "internalType": "bool",
          "name": "",
          "type": "bool"
        }
      ],
      "stateMutability": "nonpayable",
      "type": "function"
    },
    {
      "inputs": [],
      "name": "name",
      "outputs": [
        {
          "internalType": "string",
          "name": "",
          "type": "string"
        }
      ],
      "stateMutability": "view",
      "type": "function"
    },
    {
      "inputs": [],
      "name": "owner",
      "outputs": [
        {
          "internalType": "address",
          "name": "",
          "type": "address"
        }
      ],
      "stateMutability": "view",
      "type": "function"
    },
    {
      "inputs": [],
      "name": "renounceOwnership",
      "outputs": [],
      "stateMutability": "nonpayable",
      "type": "function"
    },
    {
      "inputs": [
        {
          "internalType": "string",
          "name": "uri",
          "type": "string"
        }
      ],
      "name": "setPublisheMetadataUi",
      "outputs": [],
      "stateMutability": "nonpayable",
      "type": "function"
    },
    {
      "inputs": [],
      "name": "symbol",
      "outputs": [
        {
          "internalType": "string",
          "name": "",
          "type": "string"
        }
      ],
      "stateMutability": "view",
      "type": "function"
    },
    {
      "inputs": [],
      "name": "totalSupply",
      "outputs": [
        {
          "internalType": "uint256",
          "name": "",
          "type": "uint256"
        }
      ],
      "stateMutability": "view",
      "type": "function"
    },
    {
      "inputs": [
        {
          "internalType": "address",
          "name": "to",
          "type": "address"
        },
        {
          "internalType": "uint256",
          "name": "amount",
          "type": "uint256"
        }
      ],
      "name": "transfer",
      "outputs": [
        {
          "internalType": "bool",
          "name": "",
          "type": "bool"
        }
      ],
      "stateMutability": "nonpayable",
      "type": "function"
    },
    {
      "inputs": [
        {
          "internalType": "address",
          "name": "from",
          "type": "address"
        },
        {
          "internalType": "address",
          "name": "to",
          "type": "address"
        },
        {
          "internalType": "uint256",
          "name": "amount",
          "type": "uint256"
        }
      ],
      "name": "transferFrom",
      "outputs": [
        {
          "internalType": "bool",
          "name": "",
          "type": "bool"
        }
      ],
      "stateMutability": "nonpayable",
      "type": "function"
    },
    {
      "inputs": [
        {
          "internalType": "address",
          "name": "newOwner",
          "type": "address"
        }
      ],
      "name": "transferOwnership",
      "outputs": [],
      "stateMutability": "nonpayable",
      "type": "function"
    }
  ],
  "bytecode": "0x60806040523480156200001157600080fd5b506040518060400160405280600781526020017f4d79546f6b656e000000000000000000000000000000000000000000000000008152506040518060400160405280600381526020017f4d544b0000000000000000000000000000000000000000000000000000000000815250816003908051906020019062000096929190620004fb565b508060049080519060200190620000af929190620004fb565b50505033600660006101000a81548173ffffffffffffffffffffffffffffffffffffffff021916908373ffffffffffffffffffffffffffffffffffffffff1602179055503373ffffffffffffffffffffffffffffffffffffffff1663d5f394886040518163ffffffff1660e01b815260040160206040518083038186803b1580156200013a57600080fd5b505afa1580156200014f573d6000803e3d6000fd5b505050506040513d601f19601f82011682018060405250810190620001759190620005c2565b600760006101000a81548173ffffffffffffffffffffffffffffffffffffffff021916908373ffffffffffffffffffffffffffffffffffffffff160217905550620001d5620001c96200021f60201b60201c565b6200022760201b60201c565b620001f9620001e9620002ed60201b60201c565b620f42406200037860201b60201c565b620002196200020d620002ed60201b60201c565b6200022760201b60201c565b620007e8565b600033905090565b6000600860009054906101000a900473ffffffffffffffffffffffffffffffffffffffff16905081600860006101000a81548173ffffffffffffffffffffffffffffffffffffffff021916908373ffffffffffffffffffffffffffffffffffffffff1602179055508173ffffffffffffffffffffffffffffffffffffffff168173ffffffffffffffffffffffffffffffffffffffff167f8be0079c531659141344cd1fd0a4f28419497f9722a3daafe3b4186f6b6457e060405160405180910390a35050565b6000600660009054906101000a900473ffffffffffffffffffffffffffffffffffffffff1673ffffffffffffffffffffffffffffffffffffffff163373ffffffffffffffffffffffffffffffffffffffff1614156200037157600760009054906101000a900473ffffffffffffffffffffffffffffffffffffffff16905062000375565b3390505b90565b600073ffffffffffffffffffffffffffffffffffffffff168273ffffffffffffffffffffffffffffffffffffffff161415620003eb576040517f08c379a0000000000000000000000000000000000000000000000000000000008152600401620003e29062000626565b60405180910390fd5b620003ff60008383620004f160201b60201c565b806002600082825462000413919062000676565b92505081905550806000808473ffffffffffffffffffffffffffffffffffffffff1673ffffffffffffffffffffffffffffffffffffffff16815260200190815260200160002060008282546200046a919062000676565b925050819055508173ffffffffffffffffffffffffffffffffffffffff16600073ffffffffffffffffffffffffffffffffffffffff167fddf252ad1be2c89b69c2b068fc378daa952ba7f163c4a11628f55a4df523b3ef83604051620004d1919062000648565b60405180910390a3620004ed60008383620004f660201b60201c565b5050565b505050565b505050565b828054620005099062000711565b90600052602060002090601f0160209004810192826200052d576000855562000579565b82601f106200054857805160ff191683800117855562000579565b8280016001018555821562000579579182015b82811115620005785782518255916020019190600101906200055b565b5b5090506200058891906200058c565b5090565b5b80821115620005a75760008160009055506001016200058d565b5090565b600081519050620005bc81620007ce565b92915050565b600060208284031215620005d557600080fd5b6000620005e584828501620005ab565b91505092915050565b6000620005fd601f8362000665565b91506200060a82620007a5565b602082019050919050565b620006208162000707565b82525050565b600060208201905081810360008301526200064181620005ee565b9050919050565b60006020820190506200065f600083018462000615565b92915050565b600082825260208201905092915050565b6000620006838262000707565b9150620006908362000707565b9250827fffffffffffffffffffffffffffffffffffffffffffffffffffffffffffffffff03821115620006c857620006c762000747565b5b828201905092915050565b6000620006e082620006e7565b9050919050565b600073ffffffffffffffffffffffffffffffffffffffff82169050919050565b6000819050919050565b600060028204905060018216806200072a57607f821691505b6020821081141562000741576200074062000776565b5b50919050565b7f4e487b7100000000000000000000000000000000000000000000000000000000600052601160045260246000fd5b7f4e487b7100000000000000000000000000000000000000000000000000000000600052602260045260246000fd5b7f45524332303a206d696e7420746f20746865207a65726f206164647265737300600082015250565b620007d981620006d3565b8114620007e557600080fd5b50565b611aaf80620007f86000396000f3fe608060405234801561001057600080fd5b506004361061010b5760003560e01c806382be0eed116100a2578063a9059cbb11610071578063a9059cbb146102bc578063d3684f40146102ec578063d5f394881461030a578063dd62ed3e14610328578063f2fde38b146103585761010b565b806382be0eed146102345780638da5cb5b1461025057806395d89b411461026e578063a457c2d71461028c5761010b565b8063313ce567116100de578063313ce567146101ac57806339509351146101ca57806370a08231146101fa578063715018a61461022a5761010b565b806306fdde0314610110578063095ea7b31461012e57806318160ddd1461015e57806323b872dd1461017c575b600080fd5b610118610374565b6040516101259190611389565b60405180910390f35b61014860048036038101906101439190611103565b610406565b604051610155919061136e565b60405180910390f35b610166610429565b60405161017391906114eb565b60405180910390f35b610196600480360381019061019191906110b4565b610433565b6040516101a3919061136e565b60405180910390f35b6101b4610462565b6040516101c19190611506565b60405180910390f35b6101e460048036038101906101df9190611103565b61046b565b6040516101f1919061136e565b60405180910390f35b610214600480360381019061020f919061104f565b6104a2565b60405161022191906114eb565b60405180910390f35b6102326104ea565b005b61024e6004803603810190610249919061113f565b610572565b005b6102586105dd565b6040516102659190611353565b60405180910390f35b610276610607565b6040516102839190611389565b60405180910390f35b6102a660048036038101906102a19190611103565b610699565b6040516102b3919061136e565b60405180910390f35b6102d660048036038101906102d19190611103565b610710565b6040516102e3919061136e565b60405180910390f35b6102f4610733565b6040516103019190611389565b60405180910390f35b6103126107c5565b60405161031f9190611353565b60405180910390f35b610342600480360381019061033d9190611078565b6107eb565b60405161034f91906114eb565b60405180910390f35b610372600480360381019061036d919061104f565b610872565b005b60606003805461038390611680565b80601f01602080910402602001604051908101604052809291908181526020018280546103af90611680565b80156103fc5780601f106103d1576101008083540402835291602001916103fc565b820191906000526020600020905b8154815290600101906020018083116103df57829003601f168201915b5050505050905090565b60008061041161096a565b905061041e818585610972565b600191505092915050565b6000600254905090565b60008061043e61096a565b905061044b858285610b3d565b610456858585610bc9565b60019150509392505050565b60006012905090565b60008061047661096a565b905061049781858561048885896107eb565b6104929190611593565b610972565b600191505092915050565b60008060008373ffffffffffffffffffffffffffffffffffffffff1673ffffffffffffffffffffffffffffffffffffffff168152602001908152602001600020549050919050565b6104f261096a565b73ffffffffffffffffffffffffffffffffffffffff166105106105dd565b73ffffffffffffffffffffffffffffffffffffffff1614610566576040517f08c379a000000000000000000000000000000000000000000000000000000000815260040161055d9061144b565b60405180910390fd5b6105706000610e4a565b565b60006005805461058190611680565b9050146105c3576040517f08c379a00000000000000000000000000000000000000000000000000000000081526004016105ba9061148b565b60405180910390fd5b80600590805190602001906105d9929190610f1a565b5050565b6000600860009054906101000a900473ffffffffffffffffffffffffffffffffffffffff16905090565b60606004805461061690611680565b80601f016020809104026020016040519081016040528092919081815260200182805461064290611680565b801561068f5780601f106106645761010080835404028352916020019161068f565b820191906000526020600020905b81548152906001019060200180831161067257829003601f168201915b5050505050905090565b6000806106a461096a565b905060006106b282866107eb565b9050838110156106f7576040517f08c379a00000000000000000000000000000000000000000000000000000000081526004016106ee906114cb565b60405180910390fd5b6107048286868403610972565b60019250505092915050565b60008061071b61096a565b9050610728818585610bc9565b600191505092915050565b60606005805461074290611680565b80601f016020809104026020016040519081016040528092919081815260200182805461076e90611680565b80156107bb5780601f10610790576101008083540402835291602001916107bb565b820191906000526020600020905b81548152906001019060200180831161079e57829003601f168201915b5050505050905090565b600960009054906101000a900473ffffffffffffffffffffffffffffffffffffffff1681565b6000600160008473ffffffffffffffffffffffffffffffffffffffff1673ffffffffffffffffffffffffffffffffffffffff16815260200190815260200160002060008373ffffffffffffffffffffffffffffffffffffffff1673ffffffffffffffffffffffffffffffffffffffff16815260200190815260200160002054905092915050565b61087a61096a565b73ffffffffffffffffffffffffffffffffffffffff166108986105dd565b73ffffffffffffffffffffffffffffffffffffffff16146108ee576040517f08c379a00000000000000000000000000000000000000000000000000000000081526004016108e59061144b565b60405180910390fd5b600073ffffffffffffffffffffffffffffffffffffffff168173ffffffffffffffffffffffffffffffffffffffff16141561095e576040517f08c379a0000000000000000000000000000000000000000000000000000000008152600401610955906113cb565b60405180910390fd5b61096781610e4a565b50565b600033905090565b600073ffffffffffffffffffffffffffffffffffffffff168373ffffffffffffffffffffffffffffffffffffffff1614156109e2576040517f08c379a00000000000000000000000000000000000000000000000000000000081526004016109d9906114ab565b60405180910390fd5b600073ffffffffffffffffffffffffffffffffffffffff168273ffffffffffffffffffffffffffffffffffffffff161415610a52576040517f08c379a0000000000000000000000000000000000000000000000000000000008152600401610a49906113eb565b60405180910390fd5b80600160008573ffffffffffffffffffffffffffffffffffffffff1673ffffffffffffffffffffffffffffffffffffffff16815260200190815260200160002060008473ffffffffffffffffffffffffffffffffffffffff1673ffffffffffffffffffffffffffffffffffffffff168152602001908152602001600020819055508173ffffffffffffffffffffffffffffffffffffffff168373ffffffffffffffffffffffffffffffffffffffff167f8c5be1e5ebec7d5bd14f71427d1e84f3dd0314c0f7b2291e5b200ac8c7c3b92583604051610b3091906114eb565b60405180910390a3505050565b6000610b4984846107eb565b90507fffffffffffffffffffffffffffffffffffffffffffffffffffffffffffffffff8114610bc35781811015610bb5576040517f08c379a0000000000000000000000000000000000000000000000000000000008152600401610bac9061140b565b60405180910390fd5b610bc28484848403610972565b5b50505050565b600073ffffffffffffffffffffffffffffffffffffffff168373ffffffffffffffffffffffffffffffffffffffff161415610c39576040517f08c379a0000000000000000000000000000000000000000000000000000000008152600401610c309061146b565b60405180910390fd5b600073ffffffffffffffffffffffffffffffffffffffff168273ffffffffffffffffffffffffffffffffffffffff161415610ca9576040517f08c379a0000000000000000000000000000000000000000000000000000000008152600401610ca0906113ab565b60405180910390fd5b610cb4838383610f10565b60008060008573ffffffffffffffffffffffffffffffffffffffff1673ffffffffffffffffffffffffffffffffffffffff16815260200190815260200160002054905081811015610d3a576040517f08c379a0000000000000000000000000000000000000000000000000000000008152600401610d319061142b565b60405180910390fd5b8181036000808673ffffffffffffffffffffffffffffffffffffffff1673ffffffffffffffffffffffffffffffffffffffff16815260200190815260200160002081905550816000808573ffffffffffffffffffffffffffffffffffffffff1673ffffffffffffffffffffffffffffffffffffffff1681526020019081526020016000206000828254610dcd9190611593565b925050819055508273ffffffffffffffffffffffffffffffffffffffff168473ffffffffffffffffffffffffffffffffffffffff167fddf252ad1be2c89b69c2b068fc378daa952ba7f163c4a11628f55a4df523b3ef84604051610e3191906114eb565b60405180910390a3610e44848484610f15565b50505050565b6000600860009054906101000a900473ffffffffffffffffffffffffffffffffffffffff16905081600860006101000a81548173ffffffffffffffffffffffffffffffffffffffff021916908373ffffffffffffffffffffffffffffffffffffffff1602179055508173ffffffffffffffffffffffffffffffffffffffff168173ffffffffffffffffffffffffffffffffffffffff167f8be0079c531659141344cd1fd0a4f28419497f9722a3daafe3b4186f6b6457e060405160405180910390a35050565b505050565b505050565b828054610f2690611680565b90600052602060002090601f016020900481019282610f485760008555610f8f565b82601f10610f6157805160ff1916838001178555610f8f565b82800160010185558215610f8f579182015b82811115610f8e578251825591602001919060010190610f73565b5b509050610f9c9190610fa0565b5090565b5b80821115610fb9576000816000905550600101610fa1565b5090565b6000610fd0610fcb84611546565b611521565b905082815260208101848484011115610fe857600080fd5b610ff384828561163e565b509392505050565b60008135905061100a81611a4b565b92915050565b600082601f83011261102157600080fd5b8135611031848260208601610fbd565b91505092915050565b60008135905061104981611a62565b92915050565b60006020828403121561106157600080fd5b600061106f84828501610ffb565b91505092915050565b6000806040838503121561108b57600080fd5b600061109985828601610ffb565b92505060206110aa85828601610ffb565b9150509250929050565b6000806000606084860312156110c957600080fd5b60006110d786828701610ffb565b93505060206110e886828701610ffb565b92505060406110f98682870161103a565b9150509250925092565b6000806040838503121561111657600080fd5b600061112485828601610ffb565b92505060206111358582860161103a565b9150509250929050565b60006020828403121561115157600080fd5b600082013567ffffffffffffffff81111561116b57600080fd5b61117784828501611010565b91505092915050565b611189816115e9565b82525050565b611198816115fb565b82525050565b60006111a982611577565b6111b38185611582565b93506111c381856020860161164d565b6111cc81611770565b840191505092915050565b60006111e4602383611582565b91506111ef82611781565b604082019050919050565b6000611207602683611582565b9150611212826117d0565b604082019050919050565b600061122a602283611582565b91506112358261181f565b604082019050919050565b600061124d601d83611582565b91506112588261186e565b602082019050919050565b6000611270602683611582565b915061127b82611897565b604082019050919050565b6000611293602083611582565b915061129e826118e6565b602082019050919050565b60006112b6602583611582565b91506112c18261190f565b604082019050919050565b60006112d9602683611582565b91506112e48261195e565b604082019050919050565b60006112fc602483611582565b9150611307826119ad565b604082019050919050565b600061131f602583611582565b915061132a826119fc565b604082019050919050565b61133e81611627565b82525050565b61134d81611631565b82525050565b60006020820190506113686000830184611180565b92915050565b6000602082019050611383600083018461118f565b92915050565b600060208201905081810360008301526113a3818461119e565b905092915050565b600060208201905081810360008301526113c4816111d7565b9050919050565b600060208201905081810360008301526113e4816111fa565b9050919050565b600060208201905081810360008301526114048161121d565b9050919050565b6000602082019050818103600083015261142481611240565b9050919050565b6000602082019050818103600083015261144481611263565b9050919050565b6000602082019050818103600083015261146481611286565b9050919050565b60006020820190508181036000830152611484816112a9565b9050919050565b600060208201905081810360008301526114a4816112cc565b9050919050565b600060208201905081810360008301526114c4816112ef565b9050919050565b600060208201905081810360008301526114e481611312565b9050919050565b60006020820190506115006000830184611335565b92915050565b600060208201905061151b6000830184611344565b92915050565b600061152b61153c565b905061153782826116b2565b919050565b6000604051905090565b600067ffffffffffffffff82111561156157611560611741565b5b61156a82611770565b9050602081019050919050565b600081519050919050565b600082825260208201905092915050565b600061159e82611627565b91506115a983611627565b9250827fffffffffffffffffffffffffffffffffffffffffffffffffffffffffffffffff038211156115de576115dd6116e3565b5b828201905092915050565b60006115f482611607565b9050919050565b60008115159050919050565b600073ffffffffffffffffffffffffffffffffffffffff82169050919050565b6000819050919050565b600060ff82169050919050565b82818337600083830152505050565b60005b8381101561166b578082015181840152602081019050611650565b8381111561167a576000848401525b50505050565b6000600282049050600182168061169857607f821691505b602082108114156116ac576116ab611712565b5b50919050565b6116bb82611770565b810181811067ffffffffffffffff821117156116da576116d9611741565b5b80604052505050565b7f4e487b7100000000000000000000000000000000000000000000000000000000600052601160045260246000fd5b7f4e487b7100000000000000000000000000000000000000000000000000000000600052602260045260246000fd5b7f4e487b7100000000000000000000000000000000000000000000000000000000600052604160045260246000fd5b6000601f19601f8301169050919050565b7f45524332303a207472616e7366657220746f20746865207a65726f206164647260008201527f6573730000000000000000000000000000000000000000000000000000000000602082015250565b7f4f776e61626c653a206e6577206f776e657220697320746865207a65726f206160008201527f6464726573730000000000000000000000000000000000000000000000000000602082015250565b7f45524332303a20617070726f766520746f20746865207a65726f20616464726560008201527f7373000000000000000000000000000000000000000000000000000000000000602082015250565b7f45524332303a20696e73756666696369656e7420616c6c6f77616e6365000000600082015250565b7f45524332303a207472616e7366657220616d6f756e742065786365656473206260008201527f616c616e63650000000000000000000000000000000000000000000000000000602082015250565b7f4f776e61626c653a2063616c6c6572206973206e6f7420746865206f776e6572600082015250565b7f45524332303a207472616e736665722066726f6d20746865207a65726f20616460008201527f6472657373000000000000000000000000000000000000000000000000000000602082015250565b7f5075626c6973686564206d6574616461746120616c726561647920696e69746960008201527f616c697a65640000000000000000000000000000000000000000000000000000602082015250565b7f45524332303a20617070726f76652066726f6d20746865207a65726f2061646460008201527f7265737300000000000000000000000000000000000000000000000000000000602082015250565b7f45524332303a2064656372656173656420616c6c6f77616e63652062656c6f7760008201527f207a65726f000000000000000000000000000000000000000000000000000000602082015250565b611a54816115e9565b8114611a5f57600080fd5b50565b611a6b81611627565b8114611a7657600080fd5b5056fea2646970667358221220c3c1568715444e10424b02e41c3ff910f4875f445bd48799b3a178ea827835e564736f6c63430008040033",
  "linkReferences": {},
  "deployedLinkReferences": {}
}