{
  "_format": "hh-sol-artifact-1",
  "contractName": "Greeter",
  "sourceName": "contracts/Greeter.sol",
  "abi": [
    {
      "inputs": [],
      "stateMutability": "nonpayable",
      "type": "constructor"
    },
    {
      "anonymous": false,
      "inputs": [
        {
          "indexed": true,
          "internalType": "address",
          "name": "owner",
          "type": "address"
        },
        {
          "indexed": true,
          "internalType": "address",
          "name": "spender",
          "type": "address"
        },
        {
          "indexed": false,
          "internalType": "uint256",
          "name": "value",
          "type": "uint256"
        }
      ],
      "name": "Approval",
      "type": "event"
    },
    {
      "anonymous": false,
      "inputs": [
        {
          "indexed": true,
          "internalType": "address",
          "name": "previousOwner",
          "type": "address"
        },
        {
          "indexed": true,
          "internalType": "address",
          "name": "newOwner",
          "type": "address"
        }
      ],
      "name": "OwnershipTransferred",
      "type": "event"
    },
    {
      "anonymous": false,
      "inputs": [
        {
          "indexed": true,
          "internalType": "address",
          "name": "from",
          "type": "address"
        },
        {
          "indexed": true,
          "internalType": "address",
          "name": "to",
          "type": "address"
        },
        {
          "indexed": false,
          "internalType": "uint256",
          "name": "value",
          "type": "uint256"
        }
      ],
      "name": "Transfer",
      "type": "event"
    },
    {
      "inputs": [
        {
          "internalType": "address",
          "name": "owner",
          "type": "address"
        },
        {
          "internalType": "address",
          "name": "spender",
          "type": "address"
        }
      ],
      "name": "allowance",
      "outputs": [
        {
          "internalType": "uint256",
          "name": "",
          "type": "uint256"
        }
      ],
      "stateMutability": "view",
      "type": "function"
    },
    {
      "inputs": [
        {
          "internalType": "address",
          "name": "spender",
          "type": "address"
        },
        {
          "internalType": "uint256",
          "name": "amount",
          "type": "uint256"
        }
      ],
      "name": "approve",
      "outputs": [
        {
          "internalType": "bool",
          "name": "",
          "type": "bool"
        }
      ],
      "stateMutability": "nonpayable",
      "type": "function"
    },
    {
      "inputs": [
        {
          "internalType": "address",
          "name": "account",
          "type": "address"
        }
      ],
      "name": "balanceOf",
      "outputs": [
        {
          "internalType": "uint256",
          "name": "",
          "type": "uint256"
        }
      ],
      "stateMutability": "view",
      "type": "function"
    },
    {
      "inputs": [],
      "name": "decimals",
      "outputs": [
        {
          "internalType": "uint8",
          "name": "",
          "type": "uint8"
        }
      ],
      "stateMutability": "view",
      "type": "function"
    },
    {
      "inputs": [
        {
          "internalType": "address",
          "name": "spender",
          "type": "address"
        },
        {
          "internalType": "uint256",
          "name": "subtractedValue",
          "type": "uint256"
        }
      ],
      "name": "decreaseAllowance",
      "outputs": [
        {
          "internalType": "bool",
          "name": "",
          "type": "bool"
        }
      ],
      "stateMutability": "nonpayable",
      "type": "function"
    },
    {
      "inputs": [],
      "name": "getPublishMetadataUri",
      "outputs": [
        {
          "internalType": "string",
          "name": "",
          "type": "string"
        }
      ],
      "stateMutability": "view",
      "type": "function"
    },
    {
      "inputs": [
        {
          "internalType": "address",
          "name": "spender",
          "type": "address"
        },
        {
          "internalType": "uint256",
          "name": "addedValue",
          "type": "uint256"
        }
      ],
      "name": "increaseAllowance",
      "outputs": [
        {
          "internalType": "bool",
          "name": "",
          "type": "bool"
        }
      ],
      "stateMutability": "nonpayable",
      "type": "function"
    },
    {
      "inputs": [],
      "name": "name",
      "outputs": [
        {
          "internalType": "string",
          "name": "",
          "type": "string"
        }
      ],
      "stateMutability": "view",
      "type": "function"
    },
    {
      "inputs": [],
      "name": "owner",
      "outputs": [
        {
          "internalType": "address",
          "name": "",
          "type": "address"
        }
      ],
      "stateMutability": "view",
      "type": "function"
    },
    {
      "inputs": [],
      "name": "renounceOwnership",
      "outputs": [],
      "stateMutability": "nonpayable",
      "type": "function"
    },
    {
      "inputs": [
        {
          "internalType": "string",
          "name": "uri",
          "type": "string"
        }
      ],
      "name": "setPublishMetadataUri",
      "outputs": [],
      "stateMutability": "nonpayable",
      "type": "function"
    },
    {
      "inputs": [],
      "name": "symbol",
      "outputs": [
        {
          "internalType": "string",
          "name": "",
          "type": "string"
        }
      ],
      "stateMutability": "view",
      "type": "function"
    },
    {
      "inputs": [],
      "name": "totalSupply",
      "outputs": [
        {
          "internalType": "uint256",
          "name": "",
          "type": "uint256"
        }
      ],
      "stateMutability": "view",
      "type": "function"
    },
    {
      "inputs": [
        {
          "internalType": "address",
          "name": "to",
          "type": "address"
        },
        {
          "internalType": "uint256",
          "name": "amount",
          "type": "uint256"
        }
      ],
      "name": "transfer",
      "outputs": [
        {
          "internalType": "bool",
          "name": "",
          "type": "bool"
        }
      ],
      "stateMutability": "nonpayable",
      "type": "function"
    },
    {
      "inputs": [
        {
          "internalType": "address",
          "name": "from",
          "type": "address"
        },
        {
          "internalType": "address",
          "name": "to",
          "type": "address"
        },
        {
          "internalType": "uint256",
          "name": "amount",
          "type": "uint256"
        }
      ],
      "name": "transferFrom",
      "outputs": [
        {
          "internalType": "bool",
          "name": "",
          "type": "bool"
        }
      ],
      "stateMutability": "nonpayable",
      "type": "function"
    },
    {
      "inputs": [
        {
          "internalType": "address",
          "name": "newOwner",
          "type": "address"
        }
      ],
      "name": "transferOwnership",
      "outputs": [],
      "stateMutability": "nonpayable",
      "type": "function"
    }
  ],
  "bytecode": "0x60806040523480156200001157600080fd5b506040518060400160405280600781526020017f4d79546f6b656e000000000000000000000000000000000000000000000000008152506040518060400160405280600381526020017f4d544b000000000000000000000000000000000000000000000000000000000081525081600390805190602001906200009692919062000459565b508060049080519060200190620000af92919062000459565b5050503373ffffffffffffffffffffffffffffffffffffffff1663d5f394886040518163ffffffff1660e01b815260040160206040518083038186803b158015620000f957600080fd5b505afa1580156200010e573d6000803e3d6000fd5b505050506040513d601f19601f8201168201806040525081019062000134919062000520565b600660006101000a81548173ffffffffffffffffffffffffffffffffffffffff021916908373ffffffffffffffffffffffffffffffffffffffff1602179055506200019462000188620001de60201b60201c565b620001e660201b60201c565b620001b8620001a8620002ac60201b60201c565b620f4240620002d660201b60201c565b620001d8620001cc620002ac60201b60201c565b620001e660201b60201c565b62000746565b600033905090565b6000600760009054906101000a900473ffffffffffffffffffffffffffffffffffffffff16905081600760006101000a81548173ffffffffffffffffffffffffffffffffffffffff021916908373ffffffffffffffffffffffffffffffffffffffff1602179055508173ffffffffffffffffffffffffffffffffffffffff168173ffffffffffffffffffffffffffffffffffffffff167f8be0079c531659141344cd1fd0a4f28419497f9722a3daafe3b4186f6b6457e060405160405180910390a35050565b6000600660009054906101000a900473ffffffffffffffffffffffffffffffffffffffff16905090565b600073ffffffffffffffffffffffffffffffffffffffff168273ffffffffffffffffffffffffffffffffffffffff16141562000349576040517f08c379a0000000000000000000000000000000000000000000000000000000008152600401620003409062000584565b60405180910390fd5b6200035d600083836200044f60201b60201c565b8060026000828254620003719190620005d4565b92505081905550806000808473ffffffffffffffffffffffffffffffffffffffff1673ffffffffffffffffffffffffffffffffffffffff1681526020019081526020016000206000828254620003c89190620005d4565b925050819055508173ffffffffffffffffffffffffffffffffffffffff16600073ffffffffffffffffffffffffffffffffffffffff167fddf252ad1be2c89b69c2b068fc378daa952ba7f163c4a11628f55a4df523b3ef836040516200042f9190620005a6565b60405180910390a36200044b600083836200045460201b60201c565b5050565b505050565b505050565b82805462000467906200066f565b90600052602060002090601f0160209004810192826200048b5760008555620004d7565b82601f10620004a657805160ff1916838001178555620004d7565b82800160010185558215620004d7579182015b82811115620004d6578251825591602001919060010190620004b9565b5b509050620004e69190620004ea565b5090565b5b8082111562000505576000816000905550600101620004eb565b5090565b6000815190506200051a816200072c565b92915050565b6000602082840312156200053357600080fd5b6000620005438482850162000509565b91505092915050565b60006200055b601f83620005c3565b9150620005688262000703565b602082019050919050565b6200057e8162000665565b82525050565b600060208201905081810360008301526200059f816200054c565b9050919050565b6000602082019050620005bd600083018462000573565b92915050565b600082825260208201905092915050565b6000620005e18262000665565b9150620005ee8362000665565b9250827fffffffffffffffffffffffffffffffffffffffffffffffffffffffffffffffff03821115620006265762000625620006a5565b5b828201905092915050565b60006200063e8262000645565b9050919050565b600073ffffffffffffffffffffffffffffffffffffffff82169050919050565b6000819050919050565b600060028204905060018216806200068857607f821691505b602082108114156200069f576200069e620006d4565b5b50919050565b7f4e487b7100000000000000000000000000000000000000000000000000000000600052601160045260246000fd5b7f4e487b7100000000000000000000000000000000000000000000000000000000600052602260045260246000fd5b7f45524332303a206d696e7420746f20746865207a65726f206164647265737300600082015250565b620007378162000631565b81146200074357600080fd5b50565b611a6080620007566000396000f3fe608060405234801561001057600080fd5b50600436106101005760003560e01c806374ea128811610097578063a9059cbb11610066578063a9059cbb146102b1578063d3684f40146102e1578063dd62ed3e146102ff578063f2fde38b1461032f57610100565b806374ea1288146102295780638da5cb5b1461024557806395d89b4114610263578063a457c2d71461028157610100565b8063313ce567116100d3578063313ce567146101a157806339509351146101bf57806370a08231146101ef578063715018a61461021f57610100565b806306fdde0314610105578063095ea7b31461012357806318160ddd1461015357806323b872dd14610171575b600080fd5b61010d61034b565b60405161011a919061133a565b60405180910390f35b61013d600480360381019061013891906110b4565b6103dd565b60405161014a919061131f565b60405180910390f35b61015b610400565b604051610168919061149c565b60405180910390f35b61018b60048036038101906101869190611065565b61040a565b604051610198919061131f565b60405180910390f35b6101a9610439565b6040516101b691906114b7565b60405180910390f35b6101d960048036038101906101d491906110b4565b610442565b6040516101e6919061131f565b60405180910390f35b61020960048036038101906102049190611000565b610479565b604051610216919061149c565b60405180910390f35b6102276104c1565b005b610243600480360381019061023e91906110f0565b610549565b005b61024d6105b4565b60405161025a9190611304565b60405180910390f35b61026b6105de565b604051610278919061133a565b60405180910390f35b61029b600480360381019061029691906110b4565b610670565b6040516102a8919061131f565b60405180910390f35b6102cb60048036038101906102c691906110b4565b6106e7565b6040516102d8919061131f565b60405180910390f35b6102e961070a565b6040516102f6919061133a565b60405180910390f35b61031960048036038101906103149190611029565b61079c565b604051610326919061149c565b60405180910390f35b61034960048036038101906103449190611000565b610823565b005b60606003805461035a90611631565b80601f016020809104026020016040519081016040528092919081815260200182805461038690611631565b80156103d35780601f106103a8576101008083540402835291602001916103d3565b820191906000526020600020905b8154815290600101906020018083116103b657829003601f168201915b5050505050905090565b6000806103e861091b565b90506103f5818585610923565b600191505092915050565b6000600254905090565b60008061041561091b565b9050610422858285610aee565b61042d858585610b7a565b60019150509392505050565b60006012905090565b60008061044d61091b565b905061046e81858561045f858961079c565b6104699190611544565b610923565b600191505092915050565b60008060008373ffffffffffffffffffffffffffffffffffffffff1673ffffffffffffffffffffffffffffffffffffffff168152602001908152602001600020549050919050565b6104c961091b565b73ffffffffffffffffffffffffffffffffffffffff166104e76105b4565b73ffffffffffffffffffffffffffffffffffffffff161461053d576040517f08c379a0000000000000000000000000000000000000000000000000000000008152600401610534906113fc565b60405180910390fd5b6105476000610dfb565b565b60006005805461055890611631565b90501461059a576040517f08c379a00000000000000000000000000000000000000000000000000000000081526004016105919061143c565b60405180910390fd5b80600590805190602001906105b0929190610ecb565b5050565b6000600760009054906101000a900473ffffffffffffffffffffffffffffffffffffffff16905090565b6060600480546105ed90611631565b80601f016020809104026020016040519081016040528092919081815260200182805461061990611631565b80156106665780601f1061063b57610100808354040283529160200191610666565b820191906000526020600020905b81548152906001019060200180831161064957829003601f168201915b5050505050905090565b60008061067b61091b565b90506000610689828661079c565b9050838110156106ce576040517f08c379a00000000000000000000000000000000000000000000000000000000081526004016106c59061147c565b60405180910390fd5b6106db8286868403610923565b60019250505092915050565b6000806106f261091b565b90506106ff818585610b7a565b600191505092915050565b60606005805461071990611631565b80601f016020809104026020016040519081016040528092919081815260200182805461074590611631565b80156107925780601f1061076757610100808354040283529160200191610792565b820191906000526020600020905b81548152906001019060200180831161077557829003601f168201915b5050505050905090565b6000600160008473ffffffffffffffffffffffffffffffffffffffff1673ffffffffffffffffffffffffffffffffffffffff16815260200190815260200160002060008373ffffffffffffffffffffffffffffffffffffffff1673ffffffffffffffffffffffffffffffffffffffff16815260200190815260200160002054905092915050565b61082b61091b565b73ffffffffffffffffffffffffffffffffffffffff166108496105b4565b73ffffffffffffffffffffffffffffffffffffffff161461089f576040517f08c379a0000000000000000000000000000000000000000000000000000000008152600401610896906113fc565b60405180910390fd5b600073ffffffffffffffffffffffffffffffffffffffff168173ffffffffffffffffffffffffffffffffffffffff16141561090f576040517f08c379a00000000000000000000000000000000000000000000000000000000081526004016109069061137c565b60405180910390fd5b61091881610dfb565b50565b600033905090565b600073ffffffffffffffffffffffffffffffffffffffff168373ffffffffffffffffffffffffffffffffffffffff161415610993576040517f08c379a000000000000000000000000000000000000000000000000000000000815260040161098a9061145c565b60405180910390fd5b600073ffffffffffffffffffffffffffffffffffffffff168273ffffffffffffffffffffffffffffffffffffffff161415610a03576040517f08c379a00000000000000000000000000000000000000000000000000000000081526004016109fa9061139c565b60405180910390fd5b80600160008573ffffffffffffffffffffffffffffffffffffffff1673ffffffffffffffffffffffffffffffffffffffff16815260200190815260200160002060008473ffffffffffffffffffffffffffffffffffffffff1673ffffffffffffffffffffffffffffffffffffffff168152602001908152602001600020819055508173ffffffffffffffffffffffffffffffffffffffff168373ffffffffffffffffffffffffffffffffffffffff167f8c5be1e5ebec7d5bd14f71427d1e84f3dd0314c0f7b2291e5b200ac8c7c3b92583604051610ae1919061149c565b60405180910390a3505050565b6000610afa848461079c565b90507fffffffffffffffffffffffffffffffffffffffffffffffffffffffffffffffff8114610b745781811015610b66576040517f08c379a0000000000000000000000000000000000000000000000000000000008152600401610b5d906113bc565b60405180910390fd5b610b738484848403610923565b5b50505050565b600073ffffffffffffffffffffffffffffffffffffffff168373ffffffffffffffffffffffffffffffffffffffff161415610bea576040517f08c379a0000000000000000000000000000000000000000000000000000000008152600401610be19061141c565b60405180910390fd5b600073ffffffffffffffffffffffffffffffffffffffff168273ffffffffffffffffffffffffffffffffffffffff161415610c5a576040517f08c379a0000000000000000000000000000000000000000000000000000000008152600401610c519061135c565b60405180910390fd5b610c65838383610ec1565b60008060008573ffffffffffffffffffffffffffffffffffffffff1673ffffffffffffffffffffffffffffffffffffffff16815260200190815260200160002054905081811015610ceb576040517f08c379a0000000000000000000000000000000000000000000000000000000008152600401610ce2906113dc565b60405180910390fd5b8181036000808673ffffffffffffffffffffffffffffffffffffffff1673ffffffffffffffffffffffffffffffffffffffff16815260200190815260200160002081905550816000808573ffffffffffffffffffffffffffffffffffffffff1673ffffffffffffffffffffffffffffffffffffffff1681526020019081526020016000206000828254610d7e9190611544565b925050819055508273ffffffffffffffffffffffffffffffffffffffff168473ffffffffffffffffffffffffffffffffffffffff167fddf252ad1be2c89b69c2b068fc378daa952ba7f163c4a11628f55a4df523b3ef84604051610de2919061149c565b60405180910390a3610df5848484610ec6565b50505050565b6000600760009054906101000a900473ffffffffffffffffffffffffffffffffffffffff16905081600760006101000a81548173ffffffffffffffffffffffffffffffffffffffff021916908373ffffffffffffffffffffffffffffffffffffffff1602179055508173ffffffffffffffffffffffffffffffffffffffff168173ffffffffffffffffffffffffffffffffffffffff167f8be0079c531659141344cd1fd0a4f28419497f9722a3daafe3b4186f6b6457e060405160405180910390a35050565b505050565b505050565b828054610ed790611631565b90600052602060002090601f016020900481019282610ef95760008555610f40565b82601f10610f1257805160ff1916838001178555610f40565b82800160010185558215610f40579182015b82811115610f3f578251825591602001919060010190610f24565b5b509050610f4d9190610f51565b5090565b5b80821115610f6a576000816000905550600101610f52565b5090565b6000610f81610f7c846114f7565b6114d2565b905082815260208101848484011115610f9957600080fd5b610fa48482856115ef565b509392505050565b600081359050610fbb816119fc565b92915050565b600082601f830112610fd257600080fd5b8135610fe2848260208601610f6e565b91505092915050565b600081359050610ffa81611a13565b92915050565b60006020828403121561101257600080fd5b600061102084828501610fac565b91505092915050565b6000806040838503121561103c57600080fd5b600061104a85828601610fac565b925050602061105b85828601610fac565b9150509250929050565b60008060006060848603121561107a57600080fd5b600061108886828701610fac565b935050602061109986828701610fac565b92505060406110aa86828701610feb565b9150509250925092565b600080604083850312156110c757600080fd5b60006110d585828601610fac565b92505060206110e685828601610feb565b9150509250929050565b60006020828403121561110257600080fd5b600082013567ffffffffffffffff81111561111c57600080fd5b61112884828501610fc1565b91505092915050565b61113a8161159a565b82525050565b611149816115ac565b82525050565b600061115a82611528565b6111648185611533565b93506111748185602086016115fe565b61117d81611721565b840191505092915050565b6000611195602383611533565b91506111a082611732565b604082019050919050565b60006111b8602683611533565b91506111c382611781565b604082019050919050565b60006111db602283611533565b91506111e6826117d0565b604082019050919050565b60006111fe601d83611533565b91506112098261181f565b602082019050919050565b6000611221602683611533565b915061122c82611848565b604082019050919050565b6000611244602083611533565b915061124f82611897565b602082019050919050565b6000611267602583611533565b9150611272826118c0565b604082019050919050565b600061128a602683611533565b91506112958261190f565b604082019050919050565b60006112ad602483611533565b91506112b88261195e565b604082019050919050565b60006112d0602583611533565b91506112db826119ad565b604082019050919050565b6112ef816115d8565b82525050565b6112fe816115e2565b82525050565b60006020820190506113196000830184611131565b92915050565b60006020820190506113346000830184611140565b92915050565b60006020820190508181036000830152611354818461114f565b905092915050565b6000602082019050818103600083015261137581611188565b9050919050565b60006020820190508181036000830152611395816111ab565b9050919050565b600060208201905081810360008301526113b5816111ce565b9050919050565b600060208201905081810360008301526113d5816111f1565b9050919050565b600060208201905081810360008301526113f581611214565b9050919050565b6000602082019050818103600083015261141581611237565b9050919050565b600060208201905081810360008301526114358161125a565b9050919050565b600060208201905081810360008301526114558161127d565b9050919050565b60006020820190508181036000830152611475816112a0565b9050919050565b60006020820190508181036000830152611495816112c3565b9050919050565b60006020820190506114b160008301846112e6565b92915050565b60006020820190506114cc60008301846112f5565b92915050565b60006114dc6114ed565b90506114e88282611663565b919050565b6000604051905090565b600067ffffffffffffffff821115611512576115116116f2565b5b61151b82611721565b9050602081019050919050565b600081519050919050565b600082825260208201905092915050565b600061154f826115d8565b915061155a836115d8565b9250827fffffffffffffffffffffffffffffffffffffffffffffffffffffffffffffffff0382111561158f5761158e611694565b5b828201905092915050565b60006115a5826115b8565b9050919050565b60008115159050919050565b600073ffffffffffffffffffffffffffffffffffffffff82169050919050565b6000819050919050565b600060ff82169050919050565b82818337600083830152505050565b60005b8381101561161c578082015181840152602081019050611601565b8381111561162b576000848401525b50505050565b6000600282049050600182168061164957607f821691505b6020821081141561165d5761165c6116c3565b5b50919050565b61166c82611721565b810181811067ffffffffffffffff8211171561168b5761168a6116f2565b5b80604052505050565b7f4e487b7100000000000000000000000000000000000000000000000000000000600052601160045260246000fd5b7f4e487b7100000000000000000000000000000000000000000000000000000000600052602260045260246000fd5b7f4e487b7100000000000000000000000000000000000000000000000000000000600052604160045260246000fd5b6000601f19601f8301169050919050565b7f45524332303a207472616e7366657220746f20746865207a65726f206164647260008201527f6573730000000000000000000000000000000000000000000000000000000000602082015250565b7f4f776e61626c653a206e6577206f776e657220697320746865207a65726f206160008201527f6464726573730000000000000000000000000000000000000000000000000000602082015250565b7f45524332303a20617070726f766520746f20746865207a65726f20616464726560008201527f7373000000000000000000000000000000000000000000000000000000000000602082015250565b7f45524332303a20696e73756666696369656e7420616c6c6f77616e6365000000600082015250565b7f45524332303a207472616e7366657220616d6f756e742065786365656473206260008201527f616c616e63650000000000000000000000000000000000000000000000000000602082015250565b7f4f776e61626c653a2063616c6c6572206973206e6f7420746865206f776e6572600082015250565b7f45524332303a207472616e736665722066726f6d20746865207a65726f20616460008201527f6472657373000000000000000000000000000000000000000000000000000000602082015250565b7f5075626c6973686564206d6574616461746120616c726561647920696e69746960008201527f616c697a65640000000000000000000000000000000000000000000000000000602082015250565b7f45524332303a20617070726f76652066726f6d20746865207a65726f2061646460008201527f7265737300000000000000000000000000000000000000000000000000000000602082015250565b7f45524332303a2064656372656173656420616c6c6f77616e63652062656c6f7760008201527f207a65726f000000000000000000000000000000000000000000000000000000602082015250565b611a058161159a565b8114611a1057600080fd5b50565b611a1c816115d8565b8114611a2757600080fd5b5056fea2646970667358221220fafa374204a4c046967af9617be4ed4e8ae597f105d295ed060152a850d03e9264736f6c63430008040033",
  "linkReferences": {},
  "deployedLinkReferences": {}
}