{
  "_format": "hh-sol-artifact-1",
  "contractName": "Greeter",
  "sourceName": "contracts/Greeter.sol",
  "abi": [
    {
      "inputs": [],
      "stateMutability": "nonpayable",
      "type": "constructor"
    },
    {
      "inputs": [],
      "name": "ThirdwebContract_MetadataAlreadyInitialized",
      "type": "error"
    },
    {
      "anonymous": false,
      "inputs": [
        {
          "indexed": true,
          "internalType": "address",
          "name": "owner",
          "type": "address"
        },
        {
          "indexed": true,
          "internalType": "address",
          "name": "spender",
          "type": "address"
        },
        {
          "indexed": false,
          "internalType": "uint256",
          "name": "value",
          "type": "uint256"
        }
      ],
      "name": "Approval",
      "type": "event"
    },
    {
      "anonymous": false,
      "inputs": [
        {
          "indexed": true,
          "internalType": "address",
          "name": "previousOwner",
          "type": "address"
        },
        {
          "indexed": true,
          "internalType": "address",
          "name": "newOwner",
          "type": "address"
        }
      ],
      "name": "OwnershipTransferred",
      "type": "event"
    },
    {
      "anonymous": false,
      "inputs": [
        {
          "indexed": true,
          "internalType": "address",
          "name": "from",
          "type": "address"
        },
        {
          "indexed": true,
          "internalType": "address",
          "name": "to",
          "type": "address"
        },
        {
          "indexed": false,
          "internalType": "uint256",
          "name": "value",
          "type": "uint256"
        }
      ],
      "name": "Transfer",
      "type": "event"
    },
    {
      "inputs": [
        {
          "internalType": "address",
          "name": "owner",
          "type": "address"
        },
        {
          "internalType": "address",
          "name": "spender",
          "type": "address"
        }
      ],
      "name": "allowance",
      "outputs": [
        {
          "internalType": "uint256",
          "name": "",
          "type": "uint256"
        }
      ],
      "stateMutability": "view",
      "type": "function"
    },
    {
      "inputs": [
        {
          "internalType": "address",
          "name": "spender",
          "type": "address"
        },
        {
          "internalType": "uint256",
          "name": "amount",
          "type": "uint256"
        }
      ],
      "name": "approve",
      "outputs": [
        {
          "internalType": "bool",
          "name": "",
          "type": "bool"
        }
      ],
      "stateMutability": "nonpayable",
      "type": "function"
    },
    {
      "inputs": [
        {
          "internalType": "address",
          "name": "account",
          "type": "address"
        }
      ],
      "name": "balanceOf",
      "outputs": [
        {
          "internalType": "uint256",
          "name": "",
          "type": "uint256"
        }
      ],
      "stateMutability": "view",
      "type": "function"
    },
    {
      "inputs": [],
      "name": "decimals",
      "outputs": [
        {
          "internalType": "uint8",
          "name": "",
          "type": "uint8"
        }
      ],
      "stateMutability": "view",
      "type": "function"
    },
    {
      "inputs": [
        {
          "internalType": "address",
          "name": "spender",
          "type": "address"
        },
        {
          "internalType": "uint256",
          "name": "subtractedValue",
          "type": "uint256"
        }
      ],
      "name": "decreaseAllowance",
      "outputs": [
        {
          "internalType": "bool",
          "name": "",
          "type": "bool"
        }
      ],
      "stateMutability": "nonpayable",
      "type": "function"
    },
    {
      "inputs": [],
      "name": "getPublishMetadataUri",
      "outputs": [
        {
          "internalType": "string",
          "name": "",
          "type": "string"
        }
      ],
      "stateMutability": "view",
      "type": "function"
    },
    {
      "inputs": [
        {
          "internalType": "address",
          "name": "spender",
          "type": "address"
        },
        {
          "internalType": "uint256",
          "name": "addedValue",
          "type": "uint256"
        }
      ],
      "name": "increaseAllowance",
      "outputs": [
        {
          "internalType": "bool",
          "name": "",
          "type": "bool"
        }
      ],
      "stateMutability": "nonpayable",
      "type": "function"
    },
    {
      "inputs": [],
      "name": "name",
      "outputs": [
        {
          "internalType": "string",
          "name": "",
          "type": "string"
        }
      ],
      "stateMutability": "view",
      "type": "function"
    },
    {
      "inputs": [],
      "name": "owner",
      "outputs": [
        {
          "internalType": "address",
          "name": "",
          "type": "address"
        }
      ],
      "stateMutability": "view",
      "type": "function"
    },
    {
      "inputs": [],
      "name": "renounceOwnership",
      "outputs": [],
      "stateMutability": "nonpayable",
      "type": "function"
    },
    {
      "inputs": [
        {
          "internalType": "string",
          "name": "uri",
          "type": "string"
        }
      ],
      "name": "setPublishMetadataUri",
      "outputs": [],
      "stateMutability": "nonpayable",
      "type": "function"
    },
    {
      "inputs": [],
      "name": "symbol",
      "outputs": [
        {
          "internalType": "string",
          "name": "",
          "type": "string"
        }
      ],
      "stateMutability": "view",
      "type": "function"
    },
    {
      "inputs": [],
      "name": "totalSupply",
      "outputs": [
        {
          "internalType": "uint256",
          "name": "",
          "type": "uint256"
        }
      ],
      "stateMutability": "view",
      "type": "function"
    },
    {
      "inputs": [
        {
          "internalType": "address",
          "name": "to",
          "type": "address"
        },
        {
          "internalType": "uint256",
          "name": "amount",
          "type": "uint256"
        }
      ],
      "name": "transfer",
      "outputs": [
        {
          "internalType": "bool",
          "name": "",
          "type": "bool"
        }
      ],
      "stateMutability": "nonpayable",
      "type": "function"
    },
    {
      "inputs": [
        {
          "internalType": "address",
          "name": "from",
          "type": "address"
        },
        {
          "internalType": "address",
          "name": "to",
          "type": "address"
        },
        {
          "internalType": "uint256",
          "name": "amount",
          "type": "uint256"
        }
      ],
      "name": "transferFrom",
      "outputs": [
        {
          "internalType": "bool",
          "name": "",
          "type": "bool"
        }
      ],
      "stateMutability": "nonpayable",
      "type": "function"
    },
    {
      "inputs": [
        {
          "internalType": "address",
          "name": "newOwner",
          "type": "address"
        }
      ],
      "name": "transferOwnership",
      "outputs": [],
      "stateMutability": "nonpayable",
      "type": "function"
    }
  ],
  "bytecode": "0x60806040523480156200001157600080fd5b506040518060400160405280600781526020017f4d79546f6b656e000000000000000000000000000000000000000000000000008152506040518060400160405280600381526020017f4d544b000000000000000000000000000000000000000000000000000000000081525081600390805190602001906200009692919062000438565b508060049080519060200190620000af92919062000438565b505050620000d2620000c66200011c60201b60201c565b6200012460201b60201c565b620000f6620000e6620001ea60201b60201c565b620f4240620002b560201b60201c565b620001166200010a620001ea60201b60201c565b6200012460201b60201c565b62000753565b600033905090565b6000600660009054906101000a900473ffffffffffffffffffffffffffffffffffffffff16905081600660006101000a81548173ffffffffffffffffffffffffffffffffffffffff021916908373ffffffffffffffffffffffffffffffffffffffff1602179055508173ffffffffffffffffffffffffffffffffffffffff168173ffffffffffffffffffffffffffffffffffffffff167f8be0079c531659141344cd1fd0a4f28419497f9722a3daafe3b4186f6b6457e060405160405180910390a35050565b6000803073ffffffffffffffffffffffffffffffffffffffff163b1415620002ad573373ffffffffffffffffffffffffffffffffffffffff1663bf775fb2306040518263ffffffff1660e01b815260040162000247919062000574565b60206040518083038186803b1580156200026057600080fd5b505afa9250505080156200029457506040513d601f19601f82011682018060405250810190620002919190620004ff565b60015b620002a35760009050620002b2565b80915050620002b2565b600090505b90565b600073ffffffffffffffffffffffffffffffffffffffff168273ffffffffffffffffffffffffffffffffffffffff16141562000328576040517f08c379a00000000000000000000000000000000000000000000000000000000081526004016200031f9062000591565b60405180910390fd5b6200033c600083836200042e60201b60201c565b8060026000828254620003509190620005e1565b92505081905550806000808473ffffffffffffffffffffffffffffffffffffffff1673ffffffffffffffffffffffffffffffffffffffff1681526020019081526020016000206000828254620003a79190620005e1565b925050819055508173ffffffffffffffffffffffffffffffffffffffff16600073ffffffffffffffffffffffffffffffffffffffff167fddf252ad1be2c89b69c2b068fc378daa952ba7f163c4a11628f55a4df523b3ef836040516200040e9190620005b3565b60405180910390a36200042a600083836200043360201b60201c565b5050565b505050565b505050565b82805462000446906200067c565b90600052602060002090601f0160209004810192826200046a5760008555620004b6565b82601f106200048557805160ff1916838001178555620004b6565b82800160010185558215620004b6579182015b82811115620004b557825182559160200191906001019062000498565b5b509050620004c59190620004c9565b5090565b5b80821115620004e4576000816000905550600101620004ca565b5090565b600081519050620004f98162000739565b92915050565b6000602082840312156200051257600080fd5b60006200052284828501620004e8565b91505092915050565b62000536816200063e565b82525050565b60006200054b601f83620005d0565b9150620005588262000710565b602082019050919050565b6200056e8162000672565b82525050565b60006020820190506200058b60008301846200052b565b92915050565b60006020820190508181036000830152620005ac816200053c565b9050919050565b6000602082019050620005ca600083018462000563565b92915050565b600082825260208201905092915050565b6000620005ee8262000672565b9150620005fb8362000672565b9250827fffffffffffffffffffffffffffffffffffffffffffffffffffffffffffffffff03821115620006335762000632620006b2565b5b828201905092915050565b60006200064b8262000652565b9050919050565b600073ffffffffffffffffffffffffffffffffffffffff82169050919050565b6000819050919050565b600060028204905060018216806200069557607f821691505b60208210811415620006ac57620006ab620006e1565b5b50919050565b7f4e487b7100000000000000000000000000000000000000000000000000000000600052601160045260246000fd5b7f4e487b7100000000000000000000000000000000000000000000000000000000600052602260045260246000fd5b7f45524332303a206d696e7420746f20746865207a65726f206164647265737300600082015250565b62000744816200063e565b81146200075057600080fd5b50565b6119c580620007636000396000f3fe608060405234801561001057600080fd5b50600436106101005760003560e01c806374ea128811610097578063a9059cbb11610066578063a9059cbb146102b1578063d3684f40146102e1578063dd62ed3e146102ff578063f2fde38b1461032f57610100565b806374ea1288146102295780638da5cb5b1461024557806395d89b4114610263578063a457c2d71461028157610100565b8063313ce567116100d3578063313ce567146101a157806339509351146101bf57806370a08231146101ef578063715018a61461021f57610100565b806306fdde0314610105578063095ea7b31461012357806318160ddd1461015357806323b872dd14610171575b600080fd5b61010d61034b565b60405161011a919061130e565b60405180910390f35b61013d600480360381019061013891906110ab565b6103dd565b60405161014a91906112f3565b60405180910390f35b61015b610400565b6040516101689190611450565b60405180910390f35b61018b6004803603810190610186919061105c565b61040a565b60405161019891906112f3565b60405180910390f35b6101a9610439565b6040516101b6919061146b565b60405180910390f35b6101d960048036038101906101d491906110ab565b610442565b6040516101e691906112f3565b60405180910390f35b61020960048036038101906102049190610ff7565b610479565b6040516102169190611450565b60405180910390f35b6102276104c1565b005b610243600480360381019061023e91906110e7565b610549565b005b61024d6105ab565b60405161025a91906112d8565b60405180910390f35b61026b6105d5565b604051610278919061130e565b60405180910390f35b61029b600480360381019061029691906110ab565b610667565b6040516102a891906112f3565b60405180910390f35b6102cb60048036038101906102c691906110ab565b6106de565b6040516102d891906112f3565b60405180910390f35b6102e9610701565b6040516102f6919061130e565b60405180910390f35b61031960048036038101906103149190611020565b610793565b6040516103269190611450565b60405180910390f35b61034960048036038101906103449190610ff7565b61081a565b005b60606003805461035a906115e5565b80601f0160208091040260200160405190810160405280929190818152602001828054610386906115e5565b80156103d35780601f106103a8576101008083540402835291602001916103d3565b820191906000526020600020905b8154815290600101906020018083116103b657829003601f168201915b5050505050905090565b6000806103e8610912565b90506103f581858561091a565b600191505092915050565b6000600254905090565b600080610415610912565b9050610422858285610ae5565b61042d858585610b71565b60019150509392505050565b60006012905090565b60008061044d610912565b905061046e81858561045f8589610793565b61046991906114f8565b61091a565b600191505092915050565b60008060008373ffffffffffffffffffffffffffffffffffffffff1673ffffffffffffffffffffffffffffffffffffffff168152602001908152602001600020549050919050565b6104c9610912565b73ffffffffffffffffffffffffffffffffffffffff166104e76105ab565b73ffffffffffffffffffffffffffffffffffffffff161461053d576040517f08c379a0000000000000000000000000000000000000000000000000000000008152600401610534906113d0565b60405180910390fd5b6105476000610df2565b565b600060058054610558906115e5565b905014610591576040517f1a01834100000000000000000000000000000000000000000000000000000000815260040160405180910390fd5b80600590805190602001906105a7929190610ec2565b5050565b6000600660009054906101000a900473ffffffffffffffffffffffffffffffffffffffff16905090565b6060600480546105e4906115e5565b80601f0160208091040260200160405190810160405280929190818152602001828054610610906115e5565b801561065d5780601f106106325761010080835404028352916020019161065d565b820191906000526020600020905b81548152906001019060200180831161064057829003601f168201915b5050505050905090565b600080610672610912565b905060006106808286610793565b9050838110156106c5576040517f08c379a00000000000000000000000000000000000000000000000000000000081526004016106bc90611430565b60405180910390fd5b6106d2828686840361091a565b60019250505092915050565b6000806106e9610912565b90506106f6818585610b71565b600191505092915050565b606060058054610710906115e5565b80601f016020809104026020016040519081016040528092919081815260200182805461073c906115e5565b80156107895780601f1061075e57610100808354040283529160200191610789565b820191906000526020600020905b81548152906001019060200180831161076c57829003601f168201915b5050505050905090565b6000600160008473ffffffffffffffffffffffffffffffffffffffff1673ffffffffffffffffffffffffffffffffffffffff16815260200190815260200160002060008373ffffffffffffffffffffffffffffffffffffffff1673ffffffffffffffffffffffffffffffffffffffff16815260200190815260200160002054905092915050565b610822610912565b73ffffffffffffffffffffffffffffffffffffffff166108406105ab565b73ffffffffffffffffffffffffffffffffffffffff1614610896576040517f08c379a000000000000000000000000000000000000000000000000000000000815260040161088d906113d0565b60405180910390fd5b600073ffffffffffffffffffffffffffffffffffffffff168173ffffffffffffffffffffffffffffffffffffffff161415610906576040517f08c379a00000000000000000000000000000000000000000000000000000000081526004016108fd90611350565b60405180910390fd5b61090f81610df2565b50565b600033905090565b600073ffffffffffffffffffffffffffffffffffffffff168373ffffffffffffffffffffffffffffffffffffffff16141561098a576040517f08c379a000000000000000000000000000000000000000000000000000000000815260040161098190611410565b60405180910390fd5b600073ffffffffffffffffffffffffffffffffffffffff168273ffffffffffffffffffffffffffffffffffffffff1614156109fa576040517f08c379a00000000000000000000000000000000000000000000000000000000081526004016109f190611370565b60405180910390fd5b80600160008573ffffffffffffffffffffffffffffffffffffffff1673ffffffffffffffffffffffffffffffffffffffff16815260200190815260200160002060008473ffffffffffffffffffffffffffffffffffffffff1673ffffffffffffffffffffffffffffffffffffffff168152602001908152602001600020819055508173ffffffffffffffffffffffffffffffffffffffff168373ffffffffffffffffffffffffffffffffffffffff167f8c5be1e5ebec7d5bd14f71427d1e84f3dd0314c0f7b2291e5b200ac8c7c3b92583604051610ad89190611450565b60405180910390a3505050565b6000610af18484610793565b90507fffffffffffffffffffffffffffffffffffffffffffffffffffffffffffffffff8114610b6b5781811015610b5d576040517f08c379a0000000000000000000000000000000000000000000000000000000008152600401610b5490611390565b60405180910390fd5b610b6a848484840361091a565b5b50505050565b600073ffffffffffffffffffffffffffffffffffffffff168373ffffffffffffffffffffffffffffffffffffffff161415610be1576040517f08c379a0000000000000000000000000000000000000000000000000000000008152600401610bd8906113f0565b60405180910390fd5b600073ffffffffffffffffffffffffffffffffffffffff168273ffffffffffffffffffffffffffffffffffffffff161415610c51576040517f08c379a0000000000000000000000000000000000000000000000000000000008152600401610c4890611330565b60405180910390fd5b610c5c838383610eb8565b60008060008573ffffffffffffffffffffffffffffffffffffffff1673ffffffffffffffffffffffffffffffffffffffff16815260200190815260200160002054905081811015610ce2576040517f08c379a0000000000000000000000000000000000000000000000000000000008152600401610cd9906113b0565b60405180910390fd5b8181036000808673ffffffffffffffffffffffffffffffffffffffff1673ffffffffffffffffffffffffffffffffffffffff16815260200190815260200160002081905550816000808573ffffffffffffffffffffffffffffffffffffffff1673ffffffffffffffffffffffffffffffffffffffff1681526020019081526020016000206000828254610d7591906114f8565b925050819055508273ffffffffffffffffffffffffffffffffffffffff168473ffffffffffffffffffffffffffffffffffffffff167fddf252ad1be2c89b69c2b068fc378daa952ba7f163c4a11628f55a4df523b3ef84604051610dd99190611450565b60405180910390a3610dec848484610ebd565b50505050565b6000600660009054906101000a900473ffffffffffffffffffffffffffffffffffffffff16905081600660006101000a81548173ffffffffffffffffffffffffffffffffffffffff021916908373ffffffffffffffffffffffffffffffffffffffff1602179055508173ffffffffffffffffffffffffffffffffffffffff168173ffffffffffffffffffffffffffffffffffffffff167f8be0079c531659141344cd1fd0a4f28419497f9722a3daafe3b4186f6b6457e060405160405180910390a35050565b505050565b505050565b828054610ece906115e5565b90600052602060002090601f016020900481019282610ef05760008555610f37565b82601f10610f0957805160ff1916838001178555610f37565b82800160010185558215610f37579182015b82811115610f36578251825591602001919060010190610f1b565b5b509050610f449190610f48565b5090565b5b80821115610f61576000816000905550600101610f49565b5090565b6000610f78610f73846114ab565b611486565b905082815260208101848484011115610f9057600080fd5b610f9b8482856115a3565b509392505050565b600081359050610fb281611961565b92915050565b600082601f830112610fc957600080fd5b8135610fd9848260208601610f65565b91505092915050565b600081359050610ff181611978565b92915050565b60006020828403121561100957600080fd5b600061101784828501610fa3565b91505092915050565b6000806040838503121561103357600080fd5b600061104185828601610fa3565b925050602061105285828601610fa3565b9150509250929050565b60008060006060848603121561107157600080fd5b600061107f86828701610fa3565b935050602061109086828701610fa3565b92505060406110a186828701610fe2565b9150509250925092565b600080604083850312156110be57600080fd5b60006110cc85828601610fa3565b92505060206110dd85828601610fe2565b9150509250929050565b6000602082840312156110f957600080fd5b600082013567ffffffffffffffff81111561111357600080fd5b61111f84828501610fb8565b91505092915050565b6111318161154e565b82525050565b61114081611560565b82525050565b6000611151826114dc565b61115b81856114e7565b935061116b8185602086016115b2565b611174816116d5565b840191505092915050565b600061118c6023836114e7565b9150611197826116e6565b604082019050919050565b60006111af6026836114e7565b91506111ba82611735565b604082019050919050565b60006111d26022836114e7565b91506111dd82611784565b604082019050919050565b60006111f5601d836114e7565b9150611200826117d3565b602082019050919050565b60006112186026836114e7565b9150611223826117fc565b604082019050919050565b600061123b6020836114e7565b91506112468261184b565b602082019050919050565b600061125e6025836114e7565b915061126982611874565b604082019050919050565b60006112816024836114e7565b915061128c826118c3565b604082019050919050565b60006112a46025836114e7565b91506112af82611912565b604082019050919050565b6112c38161158c565b82525050565b6112d281611596565b82525050565b60006020820190506112ed6000830184611128565b92915050565b60006020820190506113086000830184611137565b92915050565b600060208201905081810360008301526113288184611146565b905092915050565b600060208201905081810360008301526113498161117f565b9050919050565b60006020820190508181036000830152611369816111a2565b9050919050565b60006020820190508181036000830152611389816111c5565b9050919050565b600060208201905081810360008301526113a9816111e8565b9050919050565b600060208201905081810360008301526113c98161120b565b9050919050565b600060208201905081810360008301526113e98161122e565b9050919050565b6000602082019050818103600083015261140981611251565b9050919050565b6000602082019050818103600083015261142981611274565b9050919050565b6000602082019050818103600083015261144981611297565b9050919050565b600060208201905061146560008301846112ba565b92915050565b600060208201905061148060008301846112c9565b92915050565b60006114906114a1565b905061149c8282611617565b919050565b6000604051905090565b600067ffffffffffffffff8211156114c6576114c56116a6565b5b6114cf826116d5565b9050602081019050919050565b600081519050919050565b600082825260208201905092915050565b60006115038261158c565b915061150e8361158c565b9250827fffffffffffffffffffffffffffffffffffffffffffffffffffffffffffffffff0382111561154357611542611648565b5b828201905092915050565b60006115598261156c565b9050919050565b60008115159050919050565b600073ffffffffffffffffffffffffffffffffffffffff82169050919050565b6000819050919050565b600060ff82169050919050565b82818337600083830152505050565b60005b838110156115d05780820151818401526020810190506115b5565b838111156115df576000848401525b50505050565b600060028204905060018216806115fd57607f821691505b6020821081141561161157611610611677565b5b50919050565b611620826116d5565b810181811067ffffffffffffffff8211171561163f5761163e6116a6565b5b80604052505050565b7f4e487b7100000000000000000000000000000000000000000000000000000000600052601160045260246000fd5b7f4e487b7100000000000000000000000000000000000000000000000000000000600052602260045260246000fd5b7f4e487b7100000000000000000000000000000000000000000000000000000000600052604160045260246000fd5b6000601f19601f8301169050919050565b7f45524332303a207472616e7366657220746f20746865207a65726f206164647260008201527f6573730000000000000000000000000000000000000000000000000000000000602082015250565b7f4f776e61626c653a206e6577206f776e657220697320746865207a65726f206160008201527f6464726573730000000000000000000000000000000000000000000000000000602082015250565b7f45524332303a20617070726f766520746f20746865207a65726f20616464726560008201527f7373000000000000000000000000000000000000000000000000000000000000602082015250565b7f45524332303a20696e73756666696369656e7420616c6c6f77616e6365000000600082015250565b7f45524332303a207472616e7366657220616d6f756e742065786365656473206260008201527f616c616e63650000000000000000000000000000000000000000000000000000602082015250565b7f4f776e61626c653a2063616c6c6572206973206e6f7420746865206f776e6572600082015250565b7f45524332303a207472616e736665722066726f6d20746865207a65726f20616460008201527f6472657373000000000000000000000000000000000000000000000000000000602082015250565b7f45524332303a20617070726f76652066726f6d20746865207a65726f2061646460008201527f7265737300000000000000000000000000000000000000000000000000000000602082015250565b7f45524332303a2064656372656173656420616c6c6f77616e63652062656c6f7760008201527f207a65726f000000000000000000000000000000000000000000000000000000602082015250565b61196a8161154e565b811461197557600080fd5b50565b6119818161158c565b811461198c57600080fd5b5056fea264697066735822122041ccd6944256242c13b9aceb6376cb4b96167aed0f12b1a8113420cf4f2c682464736f6c63430008040033",
  "linkReferences": {},
  "deployedLinkReferences": {}
}